:100000003488C47C012D0100DD0900000706A4002E
:100010000358211D3CCA018502000000400000FE7B
:100020004700000100040D00FFFC00000000005428
:10003000000306090C0F1215181B1E21262B303049
:1000400000000000000000103E050000000000F06D
:10005000CB060000000000D08D0A0000000000B0B8
:100060004F0E000000000090090F0000000000A0EB
:1000700000000000000000A865000000000000B0C3
:10008000BC000000000000B80B010000000000C030
:100090005A010000000000C8AA010000000000D0C2
:1000A00031020000000000D8AC020000000000E0B7
:1000B0001B030000000000E88A030000000000F0BD
:1000C000E9030000000000F8440400000000000004
:1000D0009804000000000008EB0400000000006528
:1000E0000000000000000001010101010101010107
:1000F00001010101010101010101010101010101F0
:1001000001010101010101010101010101010101DF
:1001100001010101010101010101010101010101CF
:1001200001010101010101010101010101010101BF
:1030E00001010101010101000000000000000000D9
:1030F00000000000000000000000000000000000D0
:1031000000000000000000000000000000000000BF
:1031100000000000000000000000000000000000AF
:10312000000000000000000000000000000000009F
:1034E00000000000000000020202020202020202CA
:1034F00002020202020202020202020202020202AC
:10350000020202020202020202020202020202029B
:10351000020202020202020202020202020202028B
:10352000020202020202020202020202020202027B
:1064E000020202020202020000000000000000009E
:1064F000000000000000000000000000000000009C
:10650000000000000000000000000000000000008B
:10651000000000000000000000000000000000007B
:10652000000000000000000000000000000000006B
:10653000000000000000000000000000000000005B
:10654000000000000000000000000000000000004B
:10655000000000000000000000000000000000003B
:10656000000000000000000000000000000000002B
:10657000000000000000000000000000000000001B
:10658000000000000000000000000000000000000B
:1065900000000000000000000000000000000000FB
:1065A00000000000000000000000000000000000EB
:1065B00000000000000000000000000000000000DB
:1065C00000000000000000000000000000000000CB
:1065D00000000000000000000000000000000000BB
:1065E0000000000000000057000000000000000153
:1065F000010101010101010101010101010101018B
:10660000010101010101010101010101010101017A
:10661000010101010101010101010101010101016A
:10662000010101010101010101010101010101015A
:108EE0000101010101010101010101010101010073
:108EF0000000000000000000000000000000000072
:108F00000000000000000000000000000000000061
:108F10000000000000000000000000000000000051
:108F20000000000000000000000000000000000041
:1092E000000000000000000000000000000000027C
:1092F000020202020202020202020202020202024E
:10930000020202020202020202020202020202023D
:10931000020202020202020202020202020202022D
:10932000020202020202020202020202020202021D
:10BBE0000202020202020202020202020202020037
:10BBF0000000000000000000000000000000000045
:10BC00000000000000000000000000000000000034
:10BC10000000000000000000000000000000000024
:10BC20000000000000000000000000000000000014
:10BC30000000000000000000000000000000000004
:10BC400000000000000000000000000000000000F4
:10BC500000000000000000000000000000000000E4
:10BC600000000000000000000000000000000000D4
:10BC700000000000000000000000000000000000C4
:10BC800000000000000000000000000000000000B4
:10BC900000000000000000000000000000000000A4
:10BCA0000000000000000000000000000000000094
:10BCB0000000000000000000000000000000000084
:10BCC0000000000000000000000000000000000074
:10BCD0000000000000000000000000000000000064
:10BCE0000000000000000000000000000000004F05
:10BCF000000000000000000101010101010101013B
:10BD00000101010101010101010101010101010123
:10BD10000101010101010101010101010101010113
:10BD20000101010101010101010101010101010103
:10BD300001010101010101010101010101010101F3
:10E1F0000101010101010100000000000000000018
:10E20000000000000000000000000000000000000E
:10E2100000000000000000000000000000000000FE
:10E2200000000000000000000000000000000000EE
:10E2300000000000000000000000000000000000DE
:10E5F0000000000000000002020202020202020209
:10E6000002020202020202020202020202020202EA
:10E6100002020202020202020202020202020202DA
:10E6200002020202020202020202020202020202CA
:10E6300002020202020202020202020202020202BA
:020000021000EC
:100AF00002020202020202000000000000000000E8
:100B000000000000000000000000000000000000E5
:100B100000000000000000000000000000000000D5
:100B200000000000000000000000000000000000C5
:100B300000000000000000000000000000000000B5
:100B400000000000000000000000000000000000A5
:100B50000000000000000000000000000000000095
:100B60000000000000000000000000000000000085
:100B70000000000000000000000000000000000075
:100B80000000000000000000000000000000000065
:100B90000000000000000000000000000000000055
:100BA0000000000000000000000000000000000045
:100BB0000000000000000000000000000000000035
:100BC0000000000000000000000000000000000025
:100BD0000000000000000000000000000000000015
:100BE0000000000000000000000000000000000005
:100BF000000000000000004F0000000000000001A5
:100C000001010101010101010101010101010101D4
:100C100001010101010101010101010101010101C4
:100C200001010101010101010101010101010101B4
:100C300001010101010101010101010101010101A4
:1030F00001010101010101010101010101010100C1
:1031000000000000000000000000000000000000BF
:1031100000000000000000000000000000000000AF
:10312000000000000000000000000000000000009F
:10313000000000000000000000000000000000008F
:1034F00000000000000000000000000000000002CA
:10350000020202020202020202020202020202029B
:10351000020202020202020202020202020202028B
:10352000020202020202020202020202020202027B
:10353000020202020202020202020202020202026B
:1059F0000202020202020202020202020202020089
:105A00000000000000000000000000000000000096
:105A10000000000000000000000000000000000086
:105A20000000000000000000000000000000000076
:105A30000000000000000000000000000000000066
:105A40000000000000000000000000000000000056
:105A50000000000000000000000000000000000046
:105A60000000000000000000000000000000000036
:105A70000000000000000000000000000000000026
:105A80000000000000000000000000000000000016
:105A90000000000000000000000000000000000006
:105AA00000000000000000000000000000000000F6
:105AB00000000000000000000000000000000000E6
:105AC00000000000000000000000000000000000D6
:105AD00000000000000000000000000000000000C6
:105AE00000000000000000000000000000000000B6
:105AF0000000000000000000000000000000005056
:105B0000000000000000000101010101010101018C
:105B10000101010101010101010101010101010175
:105B20000101010101010101010101010101010165
:105B30000101010101010101010101010101010155
:105B40000101010101010101010101010101010145
:107700000101010101010100000000000000000072
:107710000000000000000000000000000000000069
:107720000000000000000000000000000000000059
:107730000000000000000000000000000000000049
:107740000000000000000000000000000000000039
:107B0000000000000000000101010101010101016C
:107B10000101010101010101010101010101010155
:107B20000101010101010101010101010101010145
:107B30000101010101010101010101010101010135
:107B40000101010101010101010101010101010125
:108100000101010101010102020202020202020256
:10811000020202020202020202020202020202023F
:10812000020202020202020202020202020202022F
:10813000020202020202020202020202020202021F
:10814000020202020202020202020202020202020F
:10A30000020202020202020000000000000000003F
:10A31000000000000000000000000000000000003D
:10A32000000000000000000000000000000000002D
:10A33000000000000000000000000000000000001D
:10A34000000000000000000000000000000000000D
:10AB000000000000000000870000000000000001BD
:10AB10000101010101010101010101010101010125
:10AB20000101010101010101010101010101010115
:10AB30000101010101010101010101010101010105
:10AB400001010101010101010101010101010101F5
:10C30000010101010101010101010101010101001E
:10C31000000000000000000000000000000000001D
:10C32000000000000000000000000000000000000D
:10C3300000000000000000000000000000000000FD
:10C3400000000000000000000000000000000000ED
:10C700000000000000000000000000000000000128
:10C710000101010101010101010101010101010109
:10C7200001010101010101010101010101010101F9
:10C7300001010101010101010101010101010101E9
:10C7400001010101010101010101010101010101D9
:10CA00000101010101010101010101010101010215
:10CA100002020202020202020202020202020202F6
:10CA200002020202020202020202020202020202E6
:10CA300002020202020202020202020202020202D6
:10CA400002020202020202020202020202020202C6
:10E5000002020202020202020202020202020200ED
:10E5100000000000000000000000000000000000FB
:10E5200000000000000000000000000000000000EB
:10E5300000000000000000000000000000000000DB
:10E5400000000000000000000000000000000000CB
:10F0000000000000000000000000000000000001FF
:10F0100001010101010101010101010101010101E0
:10F0200001010101010101010101010101010101D0
:10F0300001010101010101010101010101010101C0
:10F0400001010101010101010101010101010101B0
:020000022000DC
:1008000001010101010101010101010101010100D9
:1008100000000000000000000000000000000000D8
:1008200000000000000000000000000000000000C8
:1008300000000000000000000000000000000000B8
:1008400000000000000000000000000000000000A8
:100C000000000000000000000000000000000001E3
:100C100001010101010101010101010101010101C4
:100C200001010101010101010101010101010101B4
:100C300001010101010101010101010101010101A4
:100C40000101010101010101010101010101010194
:100F000001010101010101010101010101010102D0
:100F100002020202020202020202020202020202B1
:100F200002020202020202020202020202020202A1
:100F30000202020202020202020202020202020291
:100F40000202020202020202020202020202020281
:102A000002020202020202020202020202020200A8
:102A100000000000000000000000000000000000B6
:102A200000000000000000000000000000000000A6
:102A30000000000000000000000000000000000096
:102A40000000000000000000000000000000000086
:103200000000000000000000000000000000007B43
:1032100000000000000000010101010101010101A5
:10322000010101010101010101010101010101018E
:10323000010101010101010101010101010101017E
:10324000010101010101010101010101010101016E
:10325000010101010101010101010101010101015E
:104710000101010101010100000000000000000092
:104720000000000000000000000000000000000089
:104730000000000000000000000000000000000079
:104740000000000000000000000000000000000069
:104750000000000000000000000000000000000059
:104B1000000000000000000101010101010101018C
:104B20000101010101010101010101010101010175
:104B30000101010101010101010101010101010165
:104B40000101010101010101010101010101010155
:104B50000101010101010101010101010101010145
:104E10000101010101010102020202020202020279
:104E20000202020202020202020202020202020262
:104E30000202020202020202020202020202020252
:104E40000202020202020202020202020202020242
:104E50000202020202020202020202020202020232
:10661000020202020202020000000000000000006C
:10662000000000000000000000000000000000006A
:10663000000000000000000000000000000000005A
:10664000000000000000000000000000000000004A
:10665000000000000000000000000000000000003A
:107110000000000000000001010101010101010166
:10712000010101010101010101010101010101014F
:10713000010101010101010101010101010101013F
:10714000010101010101010101010101010101012F
:10715000010101010101010101010101010101011F
:108610000101010101010100000000000000000053
:10862000000000000000000000000000000000004A
:10863000000000000000000000000000000000003A
:10864000000000000000000000000000000000002A
:10865000000000000000000000000000000000001A
:108A1000000000000000000101010101010101014D
:108A20000101010101010101010101010101010136
:108A30000101010101010101010101010101010126
:108A40000101010101010101010101010101010116
:108A50000101010101010101010101010101010106
:108D1000010101010101010202020202020202023A
:108D20000202020202020202020202020202020223
:108D30000202020202020202020202020202020213
:108D40000202020202020202020202020202020203
:108D500002020202020202020202020202020202F3
:10A51000020202020202020000000000000000002D
:10A52000000000000000000000000000000000002B
:10A53000000000000000000000000000000000001B
:10A54000000000000000000000000000000000000B
:10A5500000000000000000000000000000000000FB
:10AD1000000000000000006F0000000000000001C3
:10AD20000101010101010101010101010101010113
:10AD30000101010101010101010101010101010103
:10AD400001010101010101010101010101010101F3
:10AD500001010101010101010101010101010101E3
:10C21000010101010101010101010101010101000F
:10C22000000000000000000000000000000000000E
:10C2300000000000000000000000000000000000FE
:10C2400000000000000000000000000000000000EE
:10C2500000000000000000000000000000000000DE
:10C610000000000000000000000000000000000218
:10C6200002020202020202020202020202020202EA
:10C6300002020202020202020202020202020202DA
:10C6400002020202020202020202020202020202CA
:10C6500002020202020202020202020202020202BA
:10DB100002020202020202020202020202020200E7
:10DB200000000000000000000000000000000000F5
:10DB300000000000000000000000000000000000E5
:10DB400000000000000000000000000000000000D5
:10DB500000000000000000000000000000000000C5
:10E6100000000000000000000000000000000001F9
:10E6200001010101010101010101010101010101DA
:10E6300001010101010101010101010101010101CA
:10E6400001010101010101010101010101010101BA
:10E6500001010101010101010101010101010101AA
:10FB100001010101010101010101010101010100D6
:10FB200000000000000000000000000000000000D5
:10FB300000000000000000000000000000000000C5
:10FB400000000000000000000000000000000000B5
:10FB500000000000000000000000000000000000A5
:10FF100000000000000000000000000000000002DF
:10FF200002020202020202020202020202020202B1
:10FF300002020202020202020202020202020202A1
:10FF40000202020202020202020202020202020291
:10FF50000202020202020202020202020202020281
:020000023000CC
:1014100002020202020202020202020202020200AE
:1014200000000000000000000000000000000000BC
:1014300000000000000000000000000000000000AC
:10144000000000000000000000000000000000009C
:10145000000000000000000000000000000000008C
:101C10000000000000000000000000000000006F55
:101C200000000000000000010101010101010101AB
:101C30000101010101010101010101010101010194
:101C40000101010101010101010101010101010184
:101C50000101010101010101010101010101010174
:101C60000101010101010101010101010101010164
:103120000101010101010100000000000000000098
:10313000000000000000000000000000000000008F
:10314000000000000000000000000000000000007F
:10315000000000000000000000000000000000006F
:10316000000000000000000000000000000000005F
:103520000000000000000002020202020202020289
:10353000020202020202020202020202020202026B
:10354000020202020202020202020202020202025B
:10355000020202020202020202020202020202024B
:10356000020202020202020202020202020202023B
:104A20000202020202020200000000000000000078
:104A30000000000000000000000000000000000076
:104A40000000000000000000000000000000000066
:104A50000000000000000000000000000000000056
:104A60000000000000000000000000000000000046
:105520000000000000000001010101010101010172
:10553000010101010101010101010101010101015B
:10554000010101010101010101010101010101014B
:10555000010101010101010101010101010101013B
:10556000010101010101010101010101010101012B
:106A2000010101010101010000000000000000005F
:106A30000000000000000000000000000000000056
:106A40000000000000000000000000000000000046
:106A50000000000000000000000000000000000036
:106A60000000000000000000000000000000000026
:106E20000000000000000002020202020202020250
:106E30000202020202020202020202020202020232
:106E40000202020202020202020202020202020222
:106E50000202020202020202020202020202020212
:106E60000202020202020202020202020202020202
:10832000020202020202020000000000000000003F
:10833000000000000000000000000000000000003D
:10834000000000000000000000000000000000002D
:10835000000000000000000000000000000000001D
:10836000000000000000000000000000000000000D
:108B2000000000000000005F0000000000000001E5
:108B30000101010101010101010101010101010125
:108B40000101010101010101010101010101010115
:108B50000101010101010101010101010101010105
:108B600001010101010101010101010101010101F5
:109C20000101010101010101010101010101010025
:109C30000000000000000000000000000000000024
:109C40000000000000000000000000000000000014
:109C50000000000000000000000000000000000004
:109C600000000000000000000000000000000000F4
:10A02000000000000000000000000000000000022E
:10A030000202020202020202020202020202020200
:10A0400002020202020202020202020202020202F0
:10A0500002020202020202020202020202020202E0
:10A0600002020202020202020202020202020202D0
:10B120000202020202020202020202020202020001
:10B13000000000000000000000000000000000000F
:10B1400000000000000000000000000000000000FF
:10B1500000000000000000000000000000000000EF
:10B1600000000000000000000000000000000000DF
:10BC20000000000000000000000000000000000113
:10BC300001010101010101010101010101010101F4
:10BC400001010101010101010101010101010101E4
:10BC500001010101010101010101010101010101D4
:10BC600001010101010101010101010101010101C4
:10CD200001010101010101010101010101010100F4
:10CD300000000000000000000000000000000000F3
:10CD400000000000000000000000000000000000E3
:10CD500000000000000000000000000000000000D3
:10CD600000000000000000000000000000000000C3
:10D1200000000000000000000000000000000002FD
:10D1300002020202020202020202020202020202CF
:10D1400002020202020202020202020202020202BF
:10D1500002020202020202020202020202020202AF
:10D16000020202020202020202020202020202029F
:10E2200002020202020202020202020202020200D0
:10E2300000000000000000000000000000000000DE
:10E2400000000000000000000000000000000000CE
:10E2500000000000000000000000000000000000BE
:10E2600000000000000000000000000000000000AE
:10EA20000000000000000000000000000000005B8B
:10EA300000000000000000010101010101010101CD
:10EA400001010101010101010101010101010101B6
:10EA500001010101010101010101010101010101A6
:10EA60000101010101010101010101010101010196
:10EA70000101010101010101010101010101010186
:10FA300001010101010101000000000000000000BF
:10FA400000000000000000000000000000000000B6
:10FA500000000000000000000000000000000000A6
:10FA60000000000000000000000000000000000096
:10FA70000000000000000000000000000000000086
:10FE300000000000000000020202020202020202B0
:10FE40000202020202020202020202020202020292
:10FE50000202020202020202020202020202020282
:10FE60000202020202020202020202020202020272
:10FE70000202020202020202020202020202020262
:020000024000BC
:100E300002020202020202000000000000000000A4
:100E400000000000000000000000000000000000A2
:100E50000000000000000000000000000000000092
:100E60000000000000000000000000000000000082
:100E70000000000000000000000000000000000072
:10193000000000000000000101010101010101019E
:101940000101010101010101010101010101010187
:101950000101010101010101010101010101010177
:101960000101010101010101010101010101010167
:101970000101010101010101010101010101010157
:102930000101010101010100000000000000000090
:102940000000000000000000000000000000000087
:102950000000000000000000000000000000000077
:102960000000000000000000000000000000000067
:102970000000000000000000000000000000000057
:102D30000000000000000002020202020202020281
:102D40000202020202020202020202020202020263
:102D50000202020202020202020202020202020253
:102D60000202020202020202020202020202020243
:102D70000202020202020202020202020202020233
:103D30000202020202020200000000000000000075
:103D40000000000000000000000000000000000073
:103D50000000000000000000000000000000000063
:103D60000000000000000000000000000000000053
:103D70000000000000000000000000000000000043
:104530000000000000000053000000000000000127
:10454000010101010101010101010101010101015B
:10455000010101010101010101010101010101014B
:10456000010101010101010101010101010101013B
:10457000010101010101010101010101010101012B
:10533000010101010101010101010101010101005E
:10534000000000000000000000000000000000005D
:10535000000000000000000000000000000000004D
:10536000000000000000000000000000000000003D
:10537000000000000000000000000000000000002D
:105730000000000000000000000000000000000267
:105740000202020202020202020202020202020239
:105750000202020202020202020202020202020229
:105760000202020202020202020202020202020219
:105770000202020202020202020202020202020209
:10653000020202020202020202020202020202003D
:10654000000000000000000000000000000000004B
:10655000000000000000000000000000000000003B
:10656000000000000000000000000000000000002B
:10657000000000000000000000000000000000001B
:10703000000000000000000000000000000000014F
:107040000101010101010101010101010101010130
:107050000101010101010101010101010101010120
:107060000101010101010101010101010101010110
:107070000101010101010101010101010101010100
:107E30000101010101010101010101010101010033
:107E40000000000000000000000000000000000032
:107E50000000000000000000000000000000000022
:107E60000000000000000000000000000000000012
:107E70000000000000000000000000000000000002
:10823000000000000000000000000000000000023C
:10824000020202020202020202020202020202020E
:1082500002020202020202020202020202020202FE
:1082600002020202020202020202020202020202EE
:1082700002020202020202020202020202020202DE
:109030000202020202020202020202020202020012
:109040000000000000000000000000000000000020
:109050000000000000000000000000000000000010
:109060000000000000000000000000000000000000
:1090700000000000000000000000000000000000F0
:1098300000000000000000000000000000000053D5
:10984000000000000000000101010101010101010F
:1098500001010101010101010101010101010101F8
:1098600001010101010101010101010101010101E8
:1098700001010101010101010101010101010101D8
:1098800001010101010101010101010101010101C8
:10A640000101010101010100000000000000000003
:10A6500000000000000000000000000000000000FA
:10A6600000000000000000000000000000000000EA
:10A6700000000000000000000000000000000000DA
:10A6800000000000000000000000000000000000CA
:10AA400000000000000000020202020202020202F4
:10AA500002020202020202020202020202020202D6
:10AA600002020202020202020202020202020202C6
:10AA700002020202020202020202020202020202B6
:10AA800002020202020202020202020202020202A6
:10B8400002020202020202000000000000000000EA
:10B8500000000000000000000000000000000000E8
:10B8600000000000000000000000000000000000D8
:10B8700000000000000000000000000000000000C8
:10B8800000000000000000000000000000000000B8
:10C3400000000000000000010101010101010101E4
:10C3500001010101010101010101010101010101CD
:10C3600001010101010101010101010101010101BD
:10C3700001010101010101010101010101010101AD
:10C38000010101010101010101010101010101019D
:10D1400001010101010101000000000000000000D8
:10D1500000000000000000000000000000000000CF
:10D1600000000000000000000000000000000000BF
:10D1700000000000000000000000000000000000AF
:10D18000000000000000000000000000000000009F
:10D5400000000000000000020202020202020202C9
:10D5500002020202020202020202020202020202AB
:10D56000020202020202020202020202020202029B
:10D57000020202020202020202020202020202028B
:10D58000020202020202020202020202020202027B
:10E3400002020202020202000000000000000000BF
:10E3500000000000000000000000000000000000BD
:10E3600000000000000000000000000000000000AD
:10E37000000000000000000000000000000000009D
:10E38000000000000000000000000000000000008D
:10EB40000000000000000053000000000000000171
:10EB500001010101010101010101010101010101A5
:10EB60000101010101010101010101010101010195
:10EB70000101010101010101010101010101010185
:10EB80000101010101010101010101010101010175
:10F9400001010101010101010101010101010100A8
:10F9500000000000000000000000000000000000A7
:10F960000000000000000000000000000000000097
:10F970000000000000000000000000000000000087
:10F980000000000000000000000000000000000077
:10FD400000000000000000000000000000000002B1
:10FD50000202020202020202020202020202020283
:10FD60000202020202020202020202020202020273
:10FD70000202020202020202020202020202020263
:10FD80000202020202020202020202020202020253
:020000025000AC
:100B40000202020202020202020202020202020087
:100B50000000000000000000000000000000000095
:100B60000000000000000000000000000000000085
:100B70000000000000000000000000000000000075
:100B80000000000000000000000000000000000065
:101640000000000000000000000000000000000199
:10165000010101010101010101010101010101017A
:10166000010101010101010101010101010101016A
:10167000010101010101010101010101010101015A
:10168000010101010101010101010101010101014A
:10244000010101010101010101010101010101007D
:10245000000000000000000000000000000000007C
:10246000000000000000000000000000000000006C
:10247000000000000000000000000000000000005C
:10248000000000000000000000000000000000004C
:102840000000000000000000000000000000000286
:102850000202020202020202020202020202020258
:102860000202020202020202020202020202020248
:102870000202020202020202020202020202020238
:102880000202020202020202020202020202020228
:10364000020202020202020202020202020202005C
:10365000000000000000000000000000000000006A
:10366000000000000000000000000000000000005A
:10367000000000000000000000000000000000004A
:10368000000000000000000000000000000000003A
:103E400000000000000000000000000000000080F2
:103E50003E050000000000886F0500000000009093
:103E60009905000000000098BF050000000000A0B8
:103E7000E5050000000000A802060000000000B0F8
:103E80001B060000000000B831060000000000C062
:103E900047060000000000C85D060000000000D0DA
:103EA00073060000000000D889060000000000E052
:103EB0009F060000000000E8B50600000000003189
:103EC00000000000000000000000000000000000F2
:103ED00000000000000001000000000000000000E1
:103EE00000000000000000000000000000000000D2
:103EF00000000000000000000000000000000000C2
:103F000000000000000000000000000000000000B1
:103F100000000000000000000000000000000000A1
:103F20000000000000000000000000000000000091
:103F30000000000000000000000000000000000081
:103F40000000000000000000000000000000000071
:103F50000000000000000000000000000000000061
:103F60000000000000000000000000000000000051
:103F70000000000000000000000000000000000041
:103F80000000000000000000000000000000000031
:103F90000000000000000000000000000000000021
:103FA0000000000000000000000000000000000011
:103FB00000000000000000020000000000000000FF
:103FC00000000000000000000000000000000000F1
:103FD00000000000000001000000000000000000E0
:103FE00000000000000000000000000000000000D1
:103FF00000000000000000000000000000000000C1
:1040000000000000000000000000000000000000B0
:1040100000000000000000000000000000000000A0
:104020000000000000000000000000000000000090
:104030000000000000000000000000000000000080
:104040000000000000000000000000000000000070
:104050000000000000000000000000000000000060
:104060000000000000000000000000000000000050
:104070000000000000000000000000000000000040
:104080000000000000000000000000000000000030
:104090000000000000000000000000000000000020
:1040A0000000000000000000000000000000000010
:1040B00000000000000000020000000000000000FE
:1040C00000000000000000000000000000000000F0
:1040D00000000000000001000000000000000000DF
:1040E00000000000000000000000000000000000D0
:1040F00000000000000000000000000000000000C0
:1041000000000000000000000000000000000000AF
:10411000000000000000000000000000000000009F
:10412000000000000000000000000000000000008F
:10413000000000000000000000000000000000007F
:10414000000000000000000000000000000000006F
:10415000000000000000000000000000000000005F
:10416000000000000000000000000000000000004F
:10417000000000000000000000000000000000003F
:10418000000000000000000000000000000000002F
:10419000000000000000000000000000000000001F
:1041A000000000000000000000000000000000000F
:1041B00000000000000000020000000000000000FD
:1041C00000000000000000000000000000000000EF
:1041D00000000000000001000000000000000000DE
:1041E00000000000000000000000000000000000CF
:1041F00000000000000000000000000000000000BF
:1042000000000000000000000000000000000000AE
:10421000000000000000000000000000000000009E
:10422000000000000000000000000000000000008E
:10423000000000000000000000000000000000007E
:10424000000000000000000000000000000000006E
:10425000000000000000000000000000000000005E
:10426000000000000000000000000000000000004E
:10427000000000000000000000000000000000003E
:10428000000000000000000000000000000000002E
:10429000000000000000000000000000000000001E
:1042A000000000000000000000000000000000000E
:1042B00000000000000000020000000000000000FC
:1042C00000000000000000000000000000000000EE
:1042D00000000000000001000000000000000000DD
:1042E00000000000000000000000000000000000CE
:1042F00000000000000000000000000000000000BE
:1043000000000000000000000000000000000000AD
:10431000000000000000000000000000000000009D
:10432000000000000000000000000000000000008D
:10433000000000000000000000000000000000007D
:10434000000000000000000000000000000000006D
:10435000000000000000000000000000000000005D
:10436000000000000000000000000000000000004D
:10437000000000000000000000000000000000003D
:10438000000000000000000000000000000000002D
:10439000000000000000000000000000000000001D
:1043A000000000000000000000000000000000000D
:1043B00000000000000000020000000000000000FB
:1043C00000000000000000000000000000000000ED
:1043D00000000000000001000000000000000000DC
:1043E00000000000000000000000000000000000CD
:1043F00000000000000000000000000000000000BD
:1044000000000000000000000000000000000000AC
:10441000000000000000000000000000000000009C
:10442000000000000000000000000000000000008C
:10443000000000000000000000000000000000007C
:10444000000000000000000000000000000000006C
:10445000000000000000000000000000000000005C
:10446000000000000000000000000000000000004C
:10447000000000000000000000000000000000003C
:10448000000000000000000000000000000000002C
:10449000000000000000000000000000000000001C
:1044A000000000000000000000000000000000000C
:1044B00000000000000000020000000000000000FA
:1044C00000000000000000000000000000000000EC
:1044D00000000000000101000000000000000000DA
:1044E00000000000000000000000000000000000CC
:1044F00000000000000000000000000000000000BC
:1045000000000000000000000000000000000000AB
:10451000000000000000000000000000000000009B
:10452000000000000000000000000000000000008B
:10453000000000000000000000000000000000007B
:10454000000000000000000000000000000000006B
:10455000000000000000000000000000000000005B
:10456000000000000000000000000000000000004B
:10457000000000000000000000000000000000003B
:10458000000000000000000000000000000000002B
:10459000000000000000000000000000000000001B
:1045A000000000000000000000000000000000000B
:1045B00000000000000000020000000000000000F9
:1045C00000000000000000000000000000000000EB
:1045D00000000000000101000000000000000000D9
:1045E00000000000000000000000000000000000CB
:1045F00000000000000000000000000000000000BB
:1046000000000000000000000000000000000000AA
:10461000000000000000000000000000000000009A
:10462000000000000000000000000000000000008A
:10463000000000000000000000000000000000007A
:10464000000000000000000000000000000000006A
:10465000000000000000000000000000000000005A
:10466000000000000000000000000000000000004A
:10467000000000000000000000000000000000003A
:10468000000000000000000000000000000000002A
:10469000000000000000000000000000000000001A
:1046A000000000000000000000000000000000000A
:1046B00000000000000000020200000000000000F6
:1046C00000000000000000000000000000000000EA
:1046D00000000000000101000000000000000000D8
:1046E00000000000000000000000000000000000CA
:1046F00000000000000000000000000000000000BA
:1047000000000000000000000000000000000000A9
:104710000000000000000000000000000000000099
:104720000000000000000000000000000000000089
:104730000000000000000000000000000000000079
:104740000000000000000000000000000000000069
:104750000000000000000000000000000000000059
:104760000000000000000000000000000000000049
:104770000000000000000000000000000000000039
:104780000000000000000000000000000000000029
:104790000000000000000000000000000000000019
:1047A0000000000000000000000000000000000009
:1047B00000000000000000020200000000000000F5
:1047C00000000000000000000000000000000000E9
:1047D00000000000000101000000000000000000D7
:1047E00000000000000000000000000000000000C9
:1047F00000000000000000000000000000000000B9
:1048000000000000000000000000000000000000A8
:104810000000000000000000000000000000000098
:104820000000000000000000000000000000000088
:104830000000000000000000000000000000000078
:104840000000000000000000000000000000000068
:104850000000000000000000000000000000000058
:104860000000000000000000000000000000000048
:104870000000000000000000000000000000000038
:104880000000000000000000000000000000000028
:104890000000000000000000000000000000000018
:1048A0000000000000000000000000000000000008
:1048B00000000000000000020202000000000000F2
:1048C00000000000000000000000000000000000E8
:1048D00000000000000101000000000000000000D6
:1048E00000000000000000000000000000000000C8
:1048F00000000000000000000000000000000000B8
:1049000000000000000000000000000000000000A7
:104910000000000000000000000000000000000097
:104920000000000000000000000000000000000087
:104930000000000000000000000000000000000077
:104940000000000000000000000000000000000067
:104950000000000000000000000000000000000057
:104960000000000000000000000000000000000047
:104970000000000000000000000000000000000037
:104980000000000000000000000000000000000027
:104990000000000000000000000000000000000017
:1049A0000000000000000000000000000000000007
:1049B00000000000000000020202000000000000F1
:1049C00000000000000000000000000000000000E7
:1049D00000000000000101000000000000000000D5
:1049E00000000000000000000000000000000000C7
:1049F00000000000000000000000000000000000B7
:104A000000000000000000000000000000000000A6
:104A10000000000000000000000000000000000096
:104A20000000000000000000000000000000000086
:104A30000000000000000000000000000000000076
:104A40000000000000000000000000000000000066
:104A50000000000000000000000000000000000056
:104A60000000000000000000000000000000000046
:104A70000000000000000000000000000000000036
:104A80000000000000000000000000000000000026
:104A90000000000000000000000000000000000016
:104AA0000000000000000000000000000000000006
:104AB00000000000000000020202000000000000F0
:104AC00000000000000000000000000000000000E6
:104AD00000000000000101000000000000000000D4
:104AE00000000000000000000000000000000000C6
:104AF00000000000000000000000000000000000B6
:104B000000000000000000000000000000000000A5
:104B10000000000000000000000000000000000095
:104B20000000000000000000000000000000000085
:104B30000000000000000000000000000000000075
:104B40000000000000000000000000000000000065
:104B50000000000000000000000000000000000055
:104B60000000000000000000000000000000000045
:104B70000000000000000000000000000000000035
:104B80000000000000000000000000000000000025
:104B90000000000000000000000000000000000015
:104BA0000000000000000000000000000000000005
:104BB00000000000000000020202020000000000ED
:104BC00000000000000000000000000000000000E5
:104BD00000000000010101000000000000000000D2
:104BE00000000000000000000000000000000000C5
:104BF00000000000000000000000000000000000B5
:104C000000000000000000000000000000000000A4
:104C10000000000000000000000000000000000094
:104C20000000000000000000000000000000000084
:104C30000000000000000000000000000000000074
:104C40000000000000000000000000000000000064
:104C50000000000000000000000000000000000054
:104C60000000000000000000000000000000000044
:104C70000000000000000000000000000000000034
:104C80000000000000000000000000000000000024
:104C90000000000000000000000000000000000014
:104CA0000000000000000000000000000000000004
:104CB00000000000000000020202020000000000EC
:104CC00000000000000000000000000000000000E4
:104CD00000000000010101000000000000000000D1
:104CE00000000000000000000000000000000000C4
:104CF00000000000000000000000000000000000B4
:104D000000000000000000000000000000000000A3
:104D10000000000000000000000000000000000093
:104D20000000000000000000000000000000000083
:104D30000000000000000000000000000000000073
:104D40000000000000000000000000000000000063
:104D50000000000000000000000000000000000053
:104D60000000000000000000000000000000000043
:104D70000000000000000000000000000000000033
:104D80000000000000000000000000000000000023
:104D90000000000000000000000000000000000013
:104DA0000000000000000000000000000000000003
:104DB00000000000000000020202020000000000EB
:104DC00000000000000000000000000000000000E3
:104DD00000000001010101000000000000000000CF
:104DE00000000000000000000000000000000000C3
:104DF00000000000000000000000000000000000B3
:104E000000000000000000000000000000000000A2
:104E10000000000000000000000000000000000092
:104E20000000000000000000000000000000000082
:104E30000000000000000000000000000000000072
:104E40000000000000000000000000000000000062
:104E50000000000000000000000000000000000052
:104E60000000000000000000000000000000000042
:104E70000000000000000000000000000000000032
:104E80000000000000000000000000000000000022
:104E90000000000000000000000000000000000012
:104EA0000000000000000000000000000000000002
:104EB00000000000000000020202020200000000E8
:104EC00000000000000000000000000000000000E2
:104ED00000000001010101000000000000000000CE
:104EE00000000000000000000000000000000000C2
:104EF00000000000000000000000000000000000B2
:104F000000000000000000000000000000000000A1
:104F10000000000000000000000000000000000091
:104F20000000000000000000000000000000000081
:104F30000000000000000000000000000000000071
:104F40000000000000000000000000000000000061
:104F50000000000000000000000000000000000051
:104F60000000000000000000000000000000000041
:104F70000000000000000000000000000000000031
:104F80000000000000000000000000000000000021
:104F90000000000000000000000000000000000011
:104FA0000000000000000000000000000000000001
:104FB00000000000000000020202020200000000E7
:104FC00000000000000000000000000000000000E1
:104FD00000000001010101000000000000000000CD
:104FE00000000000000000000000000000000000C1
:104FF00000000000000000000000000000000000B1
:1050000000000000000000000000000000000000A0
:105010000000000000000000000000000000000090
:105020000000000000000000000000000000000080
:105030000000000000000000000000000000000070
:105040000000000000000000000000000000000060
:105050000000000000000000000000000000000050
:105060000000000000000000000000000000000040
:105070000000000000000000000000000000000030
:105080000000000000000000000000000000000020
:105090000000000000000000000000000000000010
:1050A0000000000000000000000000000000000000
:1050B00000000000000000020202020202000000E4
:1050C00000000000000000000000000000000000E0
:1050D00000000101010101000000000000000000CB
:1050E00000000000000000000000000000000000C0
:1050F00000000000000000000000000000000000B0
:10510000000000000000000000000000000000009F
:10511000000000000000000000000000000000008F
:10512000000000000000000000000000000000007F
:10513000000000000000000000000000000000006F
:10514000000000000000000000000000000000005F
:10515000000000000000000000000000000000004F
:10516000000000000000000000000000000000003F
:10517000000000000000000000000000000000002F
:10518000000000000000000000000000000000001F
:10519000000000000000000000000000000000000F
:1051A00000000000000000000000000000000000FF
:1051B00000000000000000020202020202010101E0
:1051C00000000000000000000000000000000000DF
:1051D00000010101010101000000000000000000C9
:1051E00000000000000000000000000000000000BF
:1051F00000000000000000000000000000000000AF
:10520000000000000000000000000000000000009E
:10521000000000000000000000000000000000008E
:10522000000000000000000000000000000000007E
:10523000000000000000000000000000000000006E
:10524000000000000000000000000000000000005E
:10525000000000000000000000000000000000004E
:10526000000000000000000000000000000000003E
:10527000000000000000000000000000000000002E
:10528000000000000000000000000000000000001E
:10529000000000000000000000000000000000000E
:1052A00000000000000000000000000000000000FE
:1052B00000000000000000020202020202020101DE
:1052C00000000000000000000000000000000000DE
:1052D00000010101010101000000000000000000C8
:1052E00000000000000000000000000000000000BE
:1052F00000000000000000000000000000000000AE
:10530000000000000000000000000000000000009D
:10531000000000000000000000000000000000008D
:10532000000000000000000000000000000000007D
:10533000000000000000000000000000000000006D
:10534000000000000000000000000000000000005D
:10535000000000000000000000000000000000004D
:10536000000000000000000000000000000000003D
:10537000000000000000000000000000000000002D
:10538000000000000000000000000000000000001D
:10539000000000000000000000000000000000000D
:1053A00000000000000000000000000000000000FD
:1053B00000000000000000020202020202020201DC
:1053C00000000000000000000000000000000000DD
:1053D00000010101010101000000000000000000C7
:1053E00000000000000000000000000000000000BD
:1053F00000000000000000000000000000000000AD
:10540000000000000000000000000000000000009C
:10541000000000000000000000000000000000008C
:10542000000000000000000000000000000000007C
:10543000000000000000000000000000000000006C
:10544000000000000000000000000000000000005C
:10545000000000000000000000000000000000004C
:10546000000000000000000000000000000000003C
:10547000000000000000000000000000000000002C
:10548000000000000000000000000000000000001C
:10549000000000000000000000000000000000000C
:1054A00000000000000000000000000000000000FC
:1054B00000000000000000020202020202020202DA
:1054C00000010000000000000000000000000000DB
:1054D00001010101010101000000000000000000C5
:1054E00000000000000000000000000000000000BC
:1054F00000000000000000000000000000000000AC
:10550000000000000000000000000000000000009B
:10551000000000000000000000000000000000008B
:10552000000000000000000000000000000000007B
:10553000000000000000000000000000000000006B
:10554000000000000000000000000000000000005B
:10555000000000000000000000000000000000004B
:10556000000000000000000000000000000000003B
:10557000000000000000000000000000000000002B
:10558000000000000000000000000000000000001B
:10559000000000000000000000000000000000000B
:1055A00000000000000000000000000000000000FB
:1055B00000000000000000020202020202020202D9
:1055C00001010100000000000000000000000000D8
:1055D00001010101010101000000000000000000C4
:1055E00000000000000000000000000000000000BB
:1055F00000000000000000000000000000000000AB
:10560000000000000000000000000000000000009A
:10561000000000000000000000000000000000008A
:10562000000000000000000000000000000000007A
:10563000000000000000000000000000000000006A
:10564000000000000000000000000000000000005A
:10565000000000000000000000000000000000004A
:10566000000000000000000000000000000000003A
:10567000000000000000000000000000000000002A
:10568000000000000000000000000000000000001A
:10569000000000000000000000000000000000000A
:1056A00000000000000000000000000000000000FA
:1056B00000000000000000020202020202020202D8
:1056C00001010100000000000000000000000001D6
:1056D00001010101010101000000000000000000C3
:1056E00000000000000000000000000000000000BA
:1056F00000000000000000000000000000000000AA
:105700000000000000000000000000000000000099
:105710000000000000000000000000000000000089
:105720000000000000000000000000000000000079
:105730000000000000000000000000000000000069
:105740000000000000000000000000000000000059
:105750000000000000000000000000000000000049
:105760000000000000000000000000000000000039
:105770000000000000000000000000000000000029
:105780000000000000000000000000000000000019
:105790000000000000000000000000000000000009
:1057A00000000000000000000000000000000000F9
:1057B00000000000000000020202020202020202D7
:1057C00002010100000000000000000000000001D4
:1057D00001010101010101000000000000000000C2
:1057E00000000000000000000000000000000000B9
:1057F00000000000000000000000000000000000A9
:105800000000000000000000000000000000000098
:105810000000000000000000000000000000000088
:105820000000000000000000000000000000000078
:105830000000000000000000000000000000000068
:105840000000000000000000000000000000000058
:105850000000000000000000000000000000000048
:105860000000000000000000000000000000000038
:105870000000000000000000000000000000000028
:105880000000000000000000000000000000000018
:105890000000000000000000000000000000000008
:1058A00000000000000000000000000000000000F8
:1058B00000000000000000020202020202020202D6
:1058C00002020100000000000000000000000101D1
:1058D00001010101010101000000000000000000C1
:1058E00000000000000000000000000000000000B8
:1058F00000000000000000000000000000000000A8
:105900000000000000000000000000000000000097
:105910000000000000000000000000000000000087
:105920000000000000000000000000000000000077
:105930000000000000000000000000000000000067
:105940000000000000000000000000000000000057
:105950000000000000000000000000000000000047
:105960000000000000000000000000000000000037
:105970000000000000000000000000000000000027
:105980000000000000000000000000000000000017
:105990000000000000000000000000000000000007
:1059A00000000000000000000000000000000000F7
:1059B00000000000000000020202020202020202D5
:1059C00002020200000000000000000000000101CF
:1059D00001010101010101000000000000000000C0
:1059E00000000000000000000000000000000000B7
:1059F00000000000000000000000000000000000A7
:105A00000000000000000000000000000000000096
:105A10000000000000000000000000000000000086
:105A20000000000000000000000000000000000076
:105A30000000000000000000000000000000000066
:105A40000000000000000000000000000000000056
:105A50000000000000000000000000000000000046
:105A60000000000000000000000000000000000036
:105A70000000000000000000000000000000000026
:105A80000000000000000000000000000000000016
:105A90000000000000000000000000000000000006
:105AA00000000000000000000000000000000000F6
:105AB00000000000000000020202020202020202D4
:105AC00002020201000000000000000000010101CC
:105AD00001010101010101000000000000000000BF
:105AE00000000000000000000000000000000000B6
:105AF00000000000000000000000000000000000A6
:105B00000000000000000000000000000000000095
:105B10000000000000000000000000000000000085
:105B20000000000000000000000000000000000075
:105B30000000000000000000000000000000000065
:105B40000000000000000000000000000000000055
:105B50000000000000000000000000000000000045
:105B60000000000000000000000000000000000035
:105B70000000000000000000000000000000000025
:105B80000000000000000000000000000000000015
:105B90000000000000000000000000000000000005
:105BA00000000000000000000000000000000000F5
:105BB00000000000000000020202020202020202D3
:105BC00002020201000000000000000000010101CB
:105BD00001010101010101000000000000000000BE
:105BE00000000000000000000000000000000000B5
:105BF00000000000000000000000000000000000A5
:105C00000000000000000000000000000000000094
:105C10000000000000000000000000000000000084
:105C20000000000000000000000000000000000074
:105C30000000000000000000000000000000000064
:105C40000000000000000000000000000000000054
:105C50000000000000000000000000000000000044
:105C60000000000000000000000000000000000034
:105C70000000000000000000000000000000000024
:105C80000000000000000000000000000000000014
:105C90000000000000000000000000000000000004
:105CA00000000000000000000000000000000000F4
:105CB00000000000000000020202020202020202D2
:105CC00002020201010000000000000000010101C9
:105CD00001010101010101000000000000000000BD
:105CE00000000000000000000000000000000000B4
:105CF00000000000000000000000000000000000A4
:105D00000000000000000000000000000000000093
:105D10000000000000000000000000000000000083
:105D20000000000000000000000000000000000073
:105D30000000000000000000000000000000000063
:105D40000000000000000000000000000000000053
:105D50000000000000000000000000000000000043
:105D60000000000000000000000000000000000033
:105D70000000000000000000000000000000000023
:105D80000000000000000000000000000000000013
:105D90000000000000000000000000000000000003
:105DA00000000000000000000000000000000000F3
:105DB00000000000000000020202020202020202D1
:105DC00002020202010100000000000001010101C5
:105DD00001010101010101000000000000000000BC
:105DE00000000000000000000000000000000000B3
:105DF00000000000000000000000000000000000A3
:105E00000000000000000000000000000000000092
:105E10000000000000000000000000000000000082
:105E20000000000000000000000000000000000072
:105E30000000000000000000000000000000000062
:105E40000000000000000000000000000000000052
:105E50000000000000000000000000000000000042
:105E60000000000000000000000000000000000032
:105E70000000000000000000000000000000000022
:105E80000000000000000000000000000000000012
:105E90000000000000000000000000000000000002
:105EA00000000000000000000000000000000000F2
:105EB00000000000000000020202020202020202D0
:105EC00002020202010100000000000001010101C4
:105ED00001010101010101000000000000000000BB
:105EE00000000000000000000000000000000000B2
:105EF00000000000000000000000000000000000A2
:105F00000000000000000000000000000000000091
:105F10000000000000000000000000000000000081
:105F20000000000000000000000000000000000071
:105F30000000000000000000000000000000000061
:105F40000000000000000000000000000000000051
:105F50000000000000000000000000000000000041
:105F60000000000000000000000000000000000031
:105F70000000000000000000000000000000000021
:105F80000000000000000000000000000000000011
:105F90000000000000000000000000000000000001
:105FA00000000000000000000000000000000000F1
:105FB00000000000000000020202020202020202CF
:105FC00002020202020100000000000101010101C1
:105FD00001010101010101000000000000000000BA
:105FE00000000000000000000000000000000000B1
:105FF00000000000000000000000000000000000A1
:106000000000000000000000000000000000000090
:106010000000000000000000000000000000000080
:106020000000000000000000000000000000000070
:106030000000000000000000000000000000000060
:106040000000000000000000000000000000000050
:106050000000000000000000000000000000000040
:106060000000000000000000000000000000000030
:106070000000000000000000000000000000000020
:106080000000000000000000000000000000000010
:106090000000000000000000000000000000000000
:1060A00000000000000000000000000000000000F0
:1060B00000000000000000020202020202020202CE
:1060C00002020202020100000000000101010101C0
:1060D00001010101010101000000000000000000B9
:1060E00000000000000000000000000000000000B0
:1060F00000000000000000000000000000000000A0
:10610000000000000000000000000000000000008F
:10611000000000000000000000000000000000007F
:10612000000000000000000000000000000000006F
:10613000000000000000000000000000000000005F
:10614000000000000000000000000000000000004F
:10615000000000000000000000000000000000003F
:10616000000000000000000000000000000000002F
:10617000000000000000000000000000000000001F
:10618000000000000000000000000000000000000F
:1061900000000000000000000000000000000000FF
:1061A00000000000000000000000000000000000EF
:1061B00000000000000000020202020202020202CD
:1061C00002020202020100000000000101010101BF
:1061D00001010101010101000000000000000000B8
:1061E00000000000000000000000000000000000AF
:1061F000000000000000000000000000000000009F
:10620000000000000000000000000000000000008E
:10621000000000000000000000000000000000007E
:10622000000000000000000000000000000000006E
:10623000000000000000000000000000000000005E
:10624000000000000000000000000000000000004E
:10625000000000000000000000000000000000003E
:10626000000000000000000000000000000000002E
:10627000000000000000000000000000000000001E
:10628000000000000000000000000000000000000E
:1062900000000000000000000000000000000000FE
:1062A00000000000000000000000000000000000EE
:1062B00000000000000000020202020202020202CC
:1062C00002020202020100000000010101010101BD
:1062D00001010101010101000000000000000000B7
:1062E00000000000000000000000000000000000AE
:1062F000000000000000000000000000000000009E
:10630000000000000000000000000000000000008D
:10631000000000000000000000000000000000007D
:10632000000000000000000000000000000000006D
:10633000000000000000000000000000000000005D
:10634000000000000000000000000000000000004D
:10635000000000000000000000000000000000003D
:10636000000000000000000000000000000000002D
:10637000000000000000000000000000000000001D
:10638000000000000000000000000000000000000D
:1063900000000000000000000000000000000000FD
:1063A00000000000000000000000000000000000ED
:1063B00000000000000000020202020202020202CB
:1063C00002020202020200000000010101010101BB
:1063D00001010101010101000000000000000000B6
:1063E00000000000000000000000000000000000AD
:1063F000000000000000000000000000000000009D
:10640000000000000000000000000000000000008C
:10641000000000000000000000000000000000007C
:10642000000000000000000000000000000000006C
:10643000000000000000000000000000000000005C
:10644000000000000000000000000000000000004C
:10645000000000000000000000000000000000003C
:10646000000000000000000000000000000000002C
:10647000000000000000000000000000000000001C
:10648000000000000000000000000000000000000C
:1064900000000000000000000000000000000000FC
:1064A00000000000000000000000000000000000EC
:1064B00000000000000000020202020202020202CA
:1064C00002020202020200000000010101010101BA
:1064D00001010101010101000000000000000000B5
:1064E00000000000000000000000000000000000AC
:1064F000000000000000000000000000000000009C
:10650000000000000000000000000000000000008B
:10651000000000000000000000000000000000007B
:10652000000000000000000000000000000000006B
:10653000000000000000000000000000000000005B
:10654000000000000000000000000000000000004B
:10655000000000000000000000000000000000003B
:10656000000000000000000000000000000000002B
:10657000000000000000000000000000000000001B
:10658000000000000000000000000000000000000B
:1065900000000000000000000000000000000000FB
:1065A00000000000000000000000000000000000EB
:1065B00000000000000000020202020202020202C9
:1065C00002020202020200000001010101010101B8
:1065D00001010101010101000000000000000000B4
:1065E00000000000000000000000000000000000AB
:1065F000000000000000000000000000000000009B
:10660000000000000000000000000000000000008A
:10661000000000000000000000000000000000007A
:10662000000000000000000000000000000000006A
:10663000000000000000000000000000000000005A
:10664000000000000000000000000000000000004A
:10665000000000000000000000000000000000003A
:10666000000000000000000000000000000000002A
:10667000000000000000000000000000000000001A
:10668000000000000000000000000000000000000A
:1066900000000000000000000000000000000000FA
:1066A00000000000000000000000000000000000EA
:1066B00000000000000000020202020202020202C8
:1066C00002020202020200000001010101010101B7
:1066D00001010101010101000000000000000000B3
:1066E00000000000000000000000000000000000AA
:1066F000000000000000000000000000000000009A
:106700000000000000000000000000000000000089
:106710000000000000000000000000000000000079
:106720000000000000000000000000000000000069
:106730000000000000000000000000000000000059
:106740000000000000000000000000000000000049
:106750000000000000000000000000000000000039
:106760000000000000000000000000000000000029
:106770000000000000000000000000000000000019
:106780000000000000000000000000000000000009
:1067900000000000000000000000000000000000F9
:1067A00000000000000000000000000000000000E9
:1067B00000000000000000020202020202020202C7
:1067C00002020202020200000101010101010101B5
:1067D00001010101010101000000000000000000B2
:1067E00000000000000000000000000000000000A9
:1067F0000000000000000000000000000000000099
:106800000000000000000000000000000000000088
:106810000000000000000000000000000000000078
:106820000000000000000000000000000000000068
:106830000000000000000000000000000000000058
:106840000000000000000000000000000000000048
:106850000000000000000000000000000000000038
:106860000000000000000000000000000000000028
:106870000000000000000000000000000000000018
:106880000000000000000000000000000000000008
:1068900000000000000000000000000000000000F8
:1068A00000000000000000000000000000000000E8
:1068B00000000000000000020202020202020202C6
:1068C00002020202020200000101010101010101B4
:1068D00001010101010101000000000000000000B1
:1068E00000000000000000000000000000000000A8
:1068F0000000000000000000000000000000000098
:106900000000000000000000000000000000000087
:106910000000000000000000000000000000000077
:106920000000000000000000000000000000000067
:106930000000000000000000000000000000000057
:106940000000000000000000000000000000000047
:106950000000000000000000000000000000000037
:106960000000000000000000000000000000000027
:106970000000000000000000000000000000000017
:106980000000000000000000000000000000000007
:1069900000000000000000000000000000000000F7
:1069A00000000000000000000000000000000000E7
:1069B00000000000000000020202020202020202C5
:1069C00002020202020200000101010101010101B3
:1069D00001010101010101000000000000000000B0
:1069E00000000000000000000000000000000000A7
:1069F0000000000000000000000000000000000097
:106A00000000000000000000000000000000000086
:106A10000000000000000000000000000000000076
:106A20000000000000000000000000000000000066
:106A30000000000000000000000000000000000056
:106A40000000000000000000000000000000000046
:106A50000000000000000000000000000000000036
:106A60000000000000000000000000000000000026
:106A70000000000000000000000000000000000016
:106A80000000000000000000000000000000000006
:106A900000000000000000000000000000000000F6
:106AA00000000000000000000000000000000000E6
:106AB00000000000000000020202020202020202C4
:106AC00002020202020200000101010101010101B2
:106AD00001010101010101000000000000000000AF
:106AE00000000000000000000000000000000000A6
:106AF0000000000000000000000000000000000096
:106B00000000000000000000000000000000000085
:106B10000000000000000000000000000000000075
:106B20000000000000000000000000000000000065
:106B30000000000000000000000000000000000055
:106B40000000000000000000000000000000000045
:106B50000000000000000000000000000000000035
:106B60000000000000000000000000000000000025
:106B70000000000000000000000000000000000015
:106B80000000000000000000000000000000000005
:106B900000000000000000000000000000000000F5
:106BA00000000000000000000000000000000000E5
:106BB00000000000000000020202020202020202C3
:106BC00002020202020200000101010101010101B1
:106BD00001010101010101000000000000000000AE
:106BE00000000000000000000000000000000000A5
:106BF0000000000000000000000000000000000095
:106C00000000000000000000000000000000000084
:106C10000000000000000000000000000000000074
:106C20000000000000000000000000000000000064
:106C30000000000000000000000000000000000054
:106C40000000000000000000000000000000000044
:106C50000000000000000000000000000000000034
:106C60000000000000000000000000000000000024
:106C70000000000000000000000000000000000014
:106C80000000000000000000000000000000000004
:106C900000000000000000000000000000000000F4
:106CA00000000000000000000000000000000000E4
:106CB00000000000000000020202020202020202C2
:106CC00002020202020200000101010101010101B0
:106CD00001010101010101000000000000000000AD
:106CE00000000000000000000000000000000000A4
:106CF0000000000000000000000000000000000094
:106D00000000000000000000000000000000000083
:106D10000000000000000000000000000000000073
:106D20000000000000000000000000000000000063
:106D30000000000000000000000000000000000053
:106D40000000000000000000000000000000000043
:106D50000000000000000000000000000000000033
:106D60000000000000000000000000000000000023
:106D70000000000000000000000000000000000013
:106D80000000000000000000000000000000000003
:106D900000000000000000000000000000000000F3
:106DA00000000000000000000000000000000000E3
:106DB00000000000000000020202020202020202C1
:106DC00002020202020200000101010101010101AF
:106DD00001010101010101000000000000000000AC
:106DE00000000000000000000000000000000000A3
:106DF0000000000000000000000000000000000093
:106E00000000000000000000000000000000000082
:106E10000000000000000000000000000000000072
:106E20000000000000000000000000000000000062
:106E30000000000000000000000000000000000052
:106E40000000000000000000000000000000000042
:106E50000000000000000000000000000000000032
:106E60000000000000000000000000000000000022
:106E70000000000000000000000000000000000012
:106E80000000000000000000000000000000000002
:106E900000000000000000000000000000000000F2
:106EA00000000000000000000000000000000000E2
:106EB00000000000000000020202020202020202C0
:106EC00002020202020200000000000000000000B6
:106ED00000000000000000000000000000000000B2
:106EE00000000000000000000000000000000000A2
:106EF0000000000000000000000000000000000092
:106F00000000000000000000000000000000000081
:106F10000000000000000000000000000000000071
:106F20000000000000000000000000000000000061
:106F30000000000000000000000000000000000051
:106F40000000000000000000000000000000000041
:106F50000000000000000000000000000000000031
:106F60000000000000000000000000000000000021
:106F70000000000000000000000000000000000011
:106F80000000000000000000000000000000000001
:106F900000000000000000000000000000000000F1
:106FA00000000000000000000000000000000000E1
:106FB00000000000000000000000000000000000D1
:106FC000000000000000002A000000000000000097
:106FD00000000000000000000000000000000100B0
:106FE00000000000000000000000000000000000A1
:106FF0000000000000000000000000000000000091
:107000000000000000000000000000000000000080
:107010000000000000000000000000000000000070
:107020000000000000000000000000000000000060
:107030000000000000000000000000000000000050
:107040000000000000000000000000000000000040
:107050000000000000000000000000000000000030
:107060000000000000000000000000000000000020
:107070000000000000000000000000000000000010
:107080000000000000000000000000000000000000
:1070900000000000000000000000000000000000F0
:1070A00000000000000000000000000000000000E0
:1070B00000000000000000000000000000000002CE
:1070C00000000000000000000000000000000000C0
:1070D00000000000000000000000000000000100AF
:1070E00000000000000000000000000000000000A0
:1070F0000000000000000000000000000000000090
:10710000000000000000000000000000000000007F
:10711000000000000000000000000000000000006F
:10712000000000000000000000000000000000005F
:10713000000000000000000000000000000000004F
:10714000000000000000000000000000000000003F
:10715000000000000000000000000000000000002F
:10716000000000000000000000000000000000001F
:10717000000000000000000000000000000000000F
:1071800000000000000000000000000000000000FF
:1071900000000000000000000000000000000000EF
:1071A00000000000000000000000000000000000DF
:1071B00000000000000000000000000000000002CD
:1071C00000000000000000000000000000000000BF
:1071D00000000000000000000000000000000100AE
:1071E000000000000000000000000000000000009F
:1071F000000000000000000000000000000000008F
:10720000000000000000000000000000000000007E
:10721000000000000000000000000000000000006E
:10722000000000000000000000000000000000005E
:10723000000000000000000000000000000000004E
:10724000000000000000000000000000000000003E
:10725000000000000000000000000000000000002E
:10726000000000000000000000000000000000001E
:10727000000000000000000000000000000000000E
:1072800000000000000000000000000000000000FE
:1072900000000000000000000000000000000000EE
:1072A00000000000000000000000000000000000DE
:1072B00000000000000000000000000000000002CC
:1072C00000000000000000000000000000000000BE
:1072D00000000000000000000000000000000100AD
:1072E000000000000000000000000000000000009E
:1072F000000000000000000000000000000000008E
:10730000000000000000000000000000000000007D
:10731000000000000000000000000000000000006D
:10732000000000000000000000000000000000005D
:10733000000000000000000000000000000000004D
:10734000000000000000000000000000000000003D
:10735000000000000000000000000000000000002D
:10736000000000000000000000000000000000001D
:10737000000000000000000000000000000000000D
:1073800000000000000000000000000000000000FD
:1073900000000000000000000000000000000000ED
:1073A00000000000000000000000000000000000DD
:1073B00000000000000000000000000000000002CB
:1073C00002000000000000000000000000000000BB
:1073D00000000000000000000000000000000100AC
:1073E000000000000000000000000000000000009D
:1073F000000000000000000000000000000000008D
:10740000000000000000000000000000000000007C
:10741000000000000000000000000000000000006C
:10742000000000000000000000000000000000005C
:10743000000000000000000000000000000000004C
:10744000000000000000000000000000000000003C
:10745000000000000000000000000000000000002C
:10746000000000000000000000000000000000001C
:10747000000000000000000000000000000000000C
:1074800000000000000000000000000000000000FC
:1074900000000000000000000000000000000000EC
:1074A00000000000000000000000000000000000DC
:1074B00000000000000000000000000000000002CA
:1074C00002000000000000000000000000000000BA
:1074D00000000000000000000000000000000100AB
:1074E000000000000000000000000000000000009C
:1074F000000000000000000000000000000000008C
:10750000000000000000000000000000000000007B
:10751000000000000000000000000000000000006B
:10752000000000000000000000000000000000005B
:10753000000000000000000000000000000000004B
:10754000000000000000000000000000000000003B
:10755000000000000000000000000000000000002B
:10756000000000000000000000000000000000001B
:10757000000000000000000000000000000000000B
:1075800000000000000000000000000000000000FB
:1075900000000000000000000000000000000000EB
:1075A00000000000000000000000000000000000DB
:1075B00000000000000000000000000000000002C9
:1075C00002000000000000000000000000000000B9
:1075D00000000000000000000000000000000100AA
:1075E000000000000000000000000000000000009B
:1075F000000000000000000000000000000000008B
:10760000000000000000000000000000000000007A
:10761000000000000000000000000000000000006A
:10762000000000000000000000000000000000005A
:10763000000000000000000000000000000000004A
:10764000000000000000000000000000000000003A
:10765000000000000000000000000000000000002A
:10766000000000000000000000000000000000001A
:10767000000000000000000000000000000000000A
:1076800000000000000000000000000000000000FA
:1076900000000000000000000000000000000000EA
:1076A00000000000000000000000000000000000DA
