:100000002B1102D28E4A00004C0E000009090C0090
:10001000191B013C3C04018500000000330000E294
:100020003A00000104040003FFFC0000000000414E
:100030000026480000000000000058940100000065
:100040000000682802000000000078BC02000000E8
:100050000000885003000000000098E80300000042
:100060000000E8E8030000000000354A000000003E
:10007000000055E9030000000000500000000000EF
:100080000000650000000000000001010101010105
:100090000101010101010101010101010101010150
:1000A0000101010101010101010101010101010140
:1000B0000101010101010101010101010101010130
:1000C0000101010101010101010101010101010120
:105480000101010101010101010100000000000012
:10549000000000000000000000000000000000000C
:1054A00000000000000000000000000000000000FC
:1054B00000000000000000000000000000000000EC
:1054C00000000000000000000000000000000000DC
:106480000000000000000000000002020202020200
:1064900002020202020202020202020202020202DC
:1064A00002020202020202020202020202020202CC
:1064B00002020202020202020202020202020202BC
:1064C00002020202020202020202020202020202AC
:10B8800002020202020202020202000000000000A4
:10B8900000000000000000000000000000000000A8
:10B8A0000000000000000000000000000000000098
:10B8B0000000000000000000000000000000000088
:10B8C0000000000000000000000000000000000078
:10D08000000000000000000000000101010101019A
:10D090000101010101010101010101010101010180
:10D0A0000101010101010101010101010101010170
:10D0B0000101010101010101010101010101010160
:10D0C0000101010101010101010101010101010150
:020000021000EC
:102480000101010101010101010100000000000042
:10249000000000000000000000000000000000003C
:1024A000000000000000000000000000000000002C
:1024B000000000000000000000000000000000001C
:1024C000000000000000000000000000000000000C
:103480000000000000000000000002020202020230
:10349000020202020202020202020202020202020C
:1034A00002020202020202020202020202020202FC
:1034B00002020202020202020202020202020202EC
:1034C00002020202020202020202020202020202DC
:1088800002020202020202020202000000000000D4
:1088900000000000000000000000000000000000D8
:1088A00000000000000000000000000000000000C8
:1088B00000000000000000000000000000000000B8
:1088C00000000000000000000000000000000000A8
:1094800000000000000000000000609401000000E7
:1094900000002500000000000000020000000000A5
:1094A00000000000000000000000000000000200BA
:1094B00000000100000000000000000000000000AB
:1094C000000000000000000000000000000000009C
:1094D0000000000000000000000000000200020088
:1094E0000200020002000200000001000100000072
:1094F0000100000001000001010100000000000067
:10950000000000000000000000000000000000005B
:10951000000000000000000000000000010000004A
:109520000000010000000100000000000000000039
:109530000000000001000001010100000000000027
:10954000000000000000000000000000000000001B
:10955000000000000000000000000000000000000B
:1095600000000000000000000000000000000000FB
:1095700000000100000000000000000000000000EA
:1095800000000000000000000000000000000000DB
:1095900000000000000000000000000000000000CB
:1095A00000000000000000000000000000000100BA
:1095B00000000000000000000000000000000000AB
:1095C000000000000000000000000000000000009B
:1095D0000000000000000000000000000200020087
:1095E000020002000200020000000200020000006F
:1095F0000200000001000001010100000000000065
:10960000000000000000000000000000000000005A
:10961000000000000000000000000000000000004A
:109620000200000000000000000000000000010037
:10963000000000000000000000000000000000002A
:10964000000000000000000000000000000000001A
:10965000000000000000000000000000000000000A
:1096600000000000000000000000000000000000FA
:1096700000000000000000000000000000000000EA
:1096800000000000000000000000000000000000DA
:1096900000000000000000000000000000000100C9
:1096A00000000100010002000000010001000000B4
:1096B00002000000020000010101000000000000A3
:1096C000000000000000000000000000000000009A
:1096D0000000000000000000000000000100000089
:1096E0000000010001000000000001000100000076
:1096F0000200000002000001010100000000000063
:109700000000000000000000000000000000000059
:109710000000000000000000000001000000000048
:109720000000000000000000000000000000000039
:109730000000020000000000000000000000000027
:109740000000000000000000000000000000000019
:109750000000000000000000000001000000000008
:1097600000000000000000000000000000000000F9
:1097700000000000000000000000000000000000E9
:1097800000000000000000000000000000000000D9
:1097900000000000000000000000000001000100C7
:1097A00001000100010001000000000000000000B5
:1097B00000000000010000010101000000000000A5
:1097C0000000000000000000000000000000000099
:1097D0000000000000000000000000000100010087
:1097E0000000000000000100000001000100000076
:1097F0000100000001000001010100000000000064
:109800000000000000000000000000000000000058
:109810000000000000000000000000000000000048
:109820000000000000000000000000000000000038
:109830000000000000000000000000000000000028
:109840000000000000000000000000000000000018
:109850000000000000000000000000000000000008
:1098600000000000000000000000000000000000F8
:1098700000000000010000000000000000000000E7
:1098800000000000000000000000000000000000D8
:1098900000000000000000000000020002000200C2
:1098A00002000200020002000000020002000200AA
:1098B00002000200010000000000000000000000A3
:1098C0000000000000000000000000000000000098
:1098D0000000000000000000000002000200020082
:1098E000020002000200020000000100010000006E
:1098F0000100010001000001010100000000000062
:109900000000000000000000000000000000000057
:109910000000000000000000000001000100000045
:109920000000020000000200000000000000000033
:109930000000000001000001010100000000000023
:109940000000000000000000000000000000000017
:109950000000000000000000000000000000000007
:1099600002000200020002000000010001000000ED
:1099700001000100010000010101000000000000E1
:1099800000000000000000000000000000000000D7
:1099900000000000000000000000000001000200C4
:1099A00001000000000002000000010001000100B1
:1099B00001000000000000010101000000000000A3
:1099C0000000000000000000000000000000000097
:1099D0000000000000000000000002000200020081
:1099E000020002000200020000000100010000006D
:1099F000020002000100000101010000000000005F
:109A00000000000000000000000000000000000056
:109A10000000000000000000000000000100010044
:109A2000020001000100010000000100000001002F
:109A30000200000001000001010100000000000020
:109A40000000000000000000000000000000000016
:109A50000000000000000000000000000000000006
:109A600000000000000000000000000000000000F6
:109A700000000000000000000000000000000000E6
:109A800000000000000000000000000000000000D6
:109A900000000000000000000000010000000100C4
:109AA00000000100010002000000010001000100AF
:109AB000020001000200000101010000000000009E
:109AC0000000000000000000000000000000000096
:109AD0000000000000000000000001000100000084
:109AE0000000010001000100000001000100010070
:109AF000020001000200000101010000000000005E
:109B00000000000000000000000000000000000055
:109B10000000000000000000000002000200010040
:109B2000000002000200010000000200010000002D
:109B3000020002000000000101010000000000001E
:109B40000000000000000000000000000000000015
:109B50000000000000000000000001000100000003
:109B600000000000000001000000020000000000F2
:109B700002000000020000010101000000000000DE
:109B800000000000000000000000000000000000D5
:109B900000000000000000000000010001000100C2
:109BA00001000100010001000000000000000100B0
:109BB00000000100010000010101000000000000A0
:109BC0000000000000000000000000000000000095
:109BD0000000000000000000000001000100010082
:109BE0000000000000000100000001000100010071
:109BF000010001000100000101010000000000005F
:109C00000000000000000000000000000000000054
:109C10000000000000000000000000000000000044
:109C20000000000000000000000000000000000034
:109C30000000000000000000000000000000000024
:109C40000000000000000000000000000000000014
:109C50000000000000000000000000000000000004
:109C600002000000000000000000000000000000F2
:109C700000000000010000000000000000000000E3
:109C800000000000000000000000000000000000D4
:109C900000000000000000000000020002000200BE
:109CA00002000200020002000000020002000200A6
:109CB000020002000200000000000000000000009E
:109CC0000000000000000000000000000000000094
:109CD000000000000000000000000200020002007E
:109CE0000200020002000200000002000200000068
:109CF000010001000100000101010000000000005E
:109D00000000000000000000000000000000000053
:109D1000000000000000000000000200020001003E
:109D2000010002000000020000000000000000002E
:109D3000020000000100000101010000000000001D
:109D40000000000000000000000000000000000013
:109D50000000000000000000000000000000000003
:109D600002000200020002000000010001000100E8
:109D700001000100010000010101000000000000DD
:109D800000000000000000000000000000000000D3
:109D900000000000000000000000000002000200BF
:109DA00002000000000002000000010001000100AC
:109DB000010001000000000101010000000000009E
:109DC0000000000000000000000000000000000093
:109DD000000000000000000000000200020002007D
:109DE0000200020002000200000002000200000067
:109DF0000100020002000002020200000000000058
:109E00000000000000000000000000000000000052
:109E1000000000000000000000000100020002003D
:109E20000200020002000200000001000000010028
:109E3000020001000100000101010000000000001B
:109E40000000000000000000000000000000000012
:109E50000000000000000000000000000000000002
:109E600000000000000000000000000000000000F2
:109E700000000000000000000000000000000000E2
:109E800000000000000000000000000000000000D2
:109E900000000000000000000000020001000100BE
:109EA00001000100010002000000010001000100AA
:109EB000020001000100000101010000000000009B
:109EC0000000000000000000000000000000000092
:109ED0000000000000000000000001000100000080
:109EE000000001000100010000000100010001006C
:109EF000020001000200000101010000000000005A
:109F00000000000000000000000000000000000051
:109F1000000000000000000000000200020001003C
:109F2000000002000200010000000100010000002A
:109F3000020001000000000101010000000000001B
:109F40000000000000000000000000000000000011
:109F500000000000000000000000010001000000FF
:109F600000000000000001000000020000000100ED
:109F700002000100010000010101000000000000DA
:109F800000000000000000000000000000000000D1
:109F900000000000000000000000010002000200BC
:109FA00002000200020001000000010001000100A7
:109FB000010001000100000101010000000000009B
:109FC0000000000000000000000000000000000091
:109FD000000000000000000000000100010001007E
:109FE000010001000000020000000100010001006A
:109FF000010001000100000101010000000000005B
:10A000000000000000000000000000000000000050
:10A010000000000000000000000000000000000040
:10A020000000000000000000000000000000000030
:10A030000000000000000000000000000000000020
:10A040000000000000000000000000000000000010
:10A050000000000000000000000000000000000000
:10A0600002000000000000000000000000000100ED
:10A0700000000000010000000000000000000000DF
:10A0800000000000000000000000000000000000D0
:10A0900000000000000000000000020002000200BA
:10A0A00002000200020002000000020002000200A2
:10A0B000020002000200000000000000000000009A
:10A0C0000000000000000000000000000000000090
:10A0D000000000000000000000000200020002007A
:10A0E0000200020002000200000002000200010063
:10A0F0000100020001000001010100000000000059
:10A10000000000000000000000000000000000004F
:10A110000000000000000000000002000200020039
:10A120000200020000000200000000000000000029
:10A130000200010001000001010100000000000018
:10A14000000000000000000000000000000000000F
:10A1500000000000000000000000000000000200FD
:10A1600002000200020002000000010001000100E4
:10A1700001000100010000010101000000000000D9
:10A1800000000000000000000000000000000000CF
:10A1900000000000000000000000000002000200BB
:10A1A00002000200020002000000010001000100A4
:10A1B0000100010001000001010100000000000099
:10A1C000000000000000000000000000000000008F
:10A1D0000000000000000000000002000200020079
:10A1E0000200020002000200000002000200010062
:10A1F0000100010002000002020200000000000055
:10A20000000000000000000000000000000000004E
:10A210000000000000000000000002000200020038
:10A220000200020002000200000001000100010023
:10A230000100010001000001010100000000000018
:10A24000000000000000000000000000000000000E
:10A2500000000000000000000000000000000000FE
:10A2600000000000000000000000000000000000EE
:10A2700000000000000000000000000000000000DE
:10A2800000000000000000000000000000000000CE
:10A2900000000000000000000000020001000200B9
:10A2A00001000200020001000000010001000100A5
:10A2B0000100010001000001010100000000000098
:10A2C000000000000000000000000000000000008E
:10A2D000000000000000000000000200020000007A
:10A2E0000000020002000200000001000100010065
:10A2F0000100010001000001010100000000000058
:10A30000000000000000000000000000000000004D
:10A310000000000000000000000002000200010038
:10A320000000020002000100000001000100000026
:10A330000100010000000001010100000000000018
:10A34000000000000000000000000000000000000D
:10A3500000000000000000000000020001000000FA
:10A3600000000000010002000000020001000100E6
:10A3700001000100010000010101000000000000D7
:10A3800000000000000000000000000000000000CD
:10A3900000000000000000000000020002000200B7
:10A3A00002000200020001000000010001000100A3
:10A3B0000100010001000001010100000000000097
:10A3C000000000000000000000000000000000008D
:10A3D000000000000000000000000100010001007A
:10A3E0000100010000000200000001000100010066
:10A3F0000100010001000001010100000000000057
:10A40000000000000000000000000000000000004C
:10A41000000000000000000000000000000000003C
:10A42000000000000000000000000000000000002C
:10A43000000000000000000000000000000000001C
:10A44000000000000000000000000000000000000C
:10A4500000000000000000000000000000000000FC
:10A4600002000000000000000000000000000100E9
:10A4700000000000010000000000000000000000DB
:10A4800000000000000000000000000000000000CC
:10A4900000000000000000000000020002000200B6
:10A4A000020002000200020000000200020002009E
:10A4B0000200020002000000000000000000000096
:10A4C000000000000000000000000000000000008C
:10A4D0000000000000000000000002000200020076
:10A4E000020002000200020000000200020001005F
:10A4F0000200020002000001010100000000000053
:10A50000000000000000000000000000000000004B
:10A510000000000000000000000002000200020035
:10A520000200020002000200000000000200000021
:10A530000100010001000001010100000000000015
:10A54000000000000000000000000000000000000B
:10A5500000000000000000000000020000000200F7
:10A5600002000200020002000000020002000100DE
:10A5700001000100010000010101000000000000D5
:10A5800000000000000000000000000000000000CB
:10A5900000000000000000000000020002000200B5
:10A5A000020002000200020000000200020002009D
:10A5B0000100010001000001010100000000000095
:10A5C000000000000000000000000000000000008B
:10A5D0000000000000000000000002000200020075
:10A5E000020002000200020000000200020002005D
:10A5F0000200010002000002020200000000000050
:10A60000000000000000000000000000000000004A
:10A610000000000000000000000002000200020034
:10A62000020002000200020000000200010002001D
:10A630000100010001000001010100000000000014
:10A64000000000000000000000000000000000000A
:10A6500000000000000000000000000000000000FA
:10A6600000000000000000000000000000000000EA
:10A6700000000000000000000000000000000000DA
:10A6800000000000000000000000000000000000CA
:10A6900000000000000000000000020001000200B5
:10A6A00002000200020001000000010001000100A0
:10A6B0000100010001000001010100000000000094
:10A6C000000000000000000000000000000000008A
:10A6D0000000000000000000000002000200010075
:10A6E0000100020002000200000001000100010060
:10A6F0000100010001000001010100000000000054
:10A700000000000000000000000000000000000049
:10A710000000000000000000000002000200010034
:10A720000000020002000200000001000100000021
:10A730000100010000000001010100000000000014
:10A740000000000000000000000000000000000009
:10A7500000000000000000000000020002000000F5
:10A7600000000000010002000000010001000100E3
:10A7700001000100010000010101000000000000D3
:10A7800000000000000000000000000000000000C9
:10A7900000000000000000000000020002000200B3
:10A7A000020002000200020000000100010001009E
:10A7B0000100010001000001010100000000000093
:10A7C0000000000000000000000000000000000089
:10A7D0000000000000000000000002000200020073
:10A7E0000100010001000200000001000100010061
:10A7F0000100010001000001010100000000000053
:10A800000000000000000000000000000000000048
:10A810000000000000000000000000000000000038
:10A820000000000000000000000000000000000028
:10A830000000000000000000000000000000000018
:10A840000000000000000000000000000000000008
:10A8500000000000000000000000000000000000F8
:10A8600002000000000000000000000000000100E5
:10A8700001000000010000000000000000000000D6
:10A8800000000000000000000000000000000000C8
:10A8900000000000000000000000020002000200B2
:10A8A000020002000200020000000200020002009A
:10A8B0000200020002000000000000000000000092
:10A8C0000000000000000000000000000000000088
:10A8D0000000000000000000000002000200020072
:10A8E000020002000200020000000200020002005A
:10A8F000020002000200000202020000000000004C
:10A900000000000000000000000000000000000047
:10A910000000000000000000000002000200020031
:10A92000020002000200020000000000020000001D
:10A930000100010001000001010100000000000011
:10A940000000000000000000000000000000000007
:10A9500000000000000000000000020002000200F1
:10A9600002000200020002000000020002000100DA
:10A9700002000200010000010101000000000000CF
:10A9800000000000000000000000000000000000C7
:10A9900000000000000000000000020002000200B1
:10A9A0000200020002000200000002000200020099
:10A9B0000200010001000001010100000000000090
:10A9C0000000000000000000000000000000000087
:10A9D0000000000000000000000002000200020071
:10A9E0000200020002000200000002000200020059
:10A9F000020002000200000202020000000000004B
:10AA00000000000000000000000000000000000046
:10AA10000000000000000000000002000200020030
:10AA20000200020002000200000002000200020018
:10AA3000010001000200000101010000000000000F
:10AA40000000000000000000000000000000000006
:10AA500000000000000000000000000000000000F6
:10AA600000000000000000000000000000000000E6
:10AA700000000000000000000000000000000000D6
:10AA800000000000000000000000000000000000C6
:10AA900000000000000000000000020002000200B0
:10AAA000020002000200010000000100010001009C
:10AAB0000100010001000001010100000000000090
:10AAC0000000000000000000000000000000000086
:10AAD0000000000000000000000002000200020070
:10AAE000020002000200020000000100010001005B
:10AAF0000100010001000001010100000000000050
:10AB00000000000000000000000000000000000045
:10AB1000000000000000000000000200020002002F
:10AB2000000002000200020000000100010000001D
:10AB30000100010000000001010100000000000010
:10AB40000000000000000000000000000000000005
:10AB500000000000000000000000020002000100F0
:10AB600001000100020002000000010001000100DC
:10AB700001000100010000010101000000000000CF
:10AB800000000000000000000000000000000000C5
:10AB900000000000000000000000020002000200AF
:10ABA000020002000200020000000100010001009A
:10ABB000010001000100000101010000000000008F
:10ABC0000000000000000000000000000000000085
:10ABD000000000000000000000000200020002006F
:10ABE000020002000100020000000100010001005B
:10ABF000010001000100000101010000000000004F
:10AC00000000000000000000000000000000000044
:10AC10000000000000000000000000000000000034
:10AC20000000000000000000000000000000000024
:10AC30000000000000000000000000000000000014
:10AC40000000000000000000000000000000000004
:10AC500000000000000000000000000000000000F4
:10AC600002000000000000000000000000000100E1
:10AC700001000000010000000000000000000000D2
:10AC800000000000000000000000000000000000C4
:10AC900000000000000000000000020002000200AE
:10ACA0000200020002000200000002000200020096
:10ACB000020002000200000000000000000000008E
:10ACC0000000000000000000000000000000000084
:10ACD000000000000000000000000200020002006E
:10ACE0000200020002000200000002000200020056
:10ACF0000200020002000002020200000000000048
:10AD00000000000000000000000000000000000043
:10AD1000000000000000000000000200020002002D
:10AD20000200020002000200000000000200000019
:10AD3000010001000100000101010000000000000D
:10AD40000000000000000000000000000000000003
:10AD500000000000000000000000020002000200ED
:10AD600002000200020002000000020002000200D5
:10AD700002000200020000010101000000000000CA
:10AD800000000000000000000000000000000000C3
:10AD900000000000000000000000020002000200AD
:10ADA0000200020002000200000002000200020095
:10ADB000020002000100000101010000000000008B
:10ADC0000000000000000000000000000000000083
:10ADD000000000000000000000000200020002006D
:10ADE0000200020002000200000002000200020055
:10ADF0000200020002000002020200000000000047
:10AE00000000000000000000000000000000000042
:10AE1000000000000000000000000200020002002C
:10AE20000200020002000200000002000200020014
:10AE3000010002000200000101010000000000000A
:10AE40000000000000000000000000000000000002
:10AE500000000000000000000000000000000000F2
:10AE600000000000000000000000000000000000E2
:10AE700000000000000000000000000000000000D2
:10AE800000000000000000000000000000000000C2
:10AE900000000000000000000000020002000200AC
:10AEA0000200020002000200000001000100010097
:10AEB000010001000100000101010000000000008C
:10AEC0000000000000000000000000000000000082
:10AED000000000000000000000000200020002006C
:10AEE0000200020002000200000001000100010057
:10AEF000010001000100000101010000000000004C
:10AF00000000000000000000000000000000000041
:10AF1000000000000000000000000200020002002B
:10AF20000000020002000200000001000100000019
:10AF3000010001000000000101010000000000000C
:10AF40000000000000000000000000000000000001
:10AF500000000000000000000000020002000200EB
:10AF600002000200020002000000010001000100D6
:10AF700001000100010000010101000000000000CB
:10AF800000000000000000000000000000000000C1
:10AF900000000000000000000000020002000200AB
:10AFA0000200020002000200000001000100010096
:10AFB000010001000100000101010000000000008B
:10AFC0000000000000000000000000000000000081
:10AFD000000000000000000000000200020002006B
:10AFE0000200020002000200000002000200010054
:10AFF000010001000100000101010000000000004B
:10B000000000000000000000000000000000000040
:10B010000000000000000000000000000000000030
:10B020000000000000000000000000000000000020
:10B030000000000000000000000000000000000010
:10B040000000000000000000000000000000000000
:10B0500000000000000000000000000001000100EE
:10B0600001000000000000000000000000000100DE
:10B0700001000000010000000000000000000000CE
:10B0800000000000000000000000000000000000C0
:10B0900000000000000000000000020002000200AA
:10B0A0000200020002000200000002000200020092
:10B0B000020002000200000000000000000000008A
:10B0C0000000000000000000000000000000000080
:10B0D000000000000000000000000200020002006A
:10B0E0000200020002000200000002000200020052
:10B0F0000200020002000002020200000000000044
:10B10000000000000000000000000000000000003F
:10B110000000000000000000000002000200020029
:10B120000200020002000200000000000100000016
:10B130000100010001000001010100000000000009
:10B1400000000000000000000000000000000000FF
:10B1500000000000000000000000020002000200E9
:10B1600002000200020002000000020002000200D1
:10B1700002000200020000020202000000000000C3
:10B1800000000000000000000000000000000000BF
:10B1900000000000000000000000020002000200A9
:10B1A0000200020002000200000002000200020091
:10B1B0000200020002000002020200000000000083
:10B1C000000000000000000000000000000000007F
:10B1D0000000000000000000000002000200020069
:10B1E0000200020002000200000002000200020051
:10B1F0000200020002000001010100000000000046
:10B20000000000000000000000000000000000003E
:10B210000000000000000000000002000200020028
:10B220000200020002000200000002000200020010
:10B230000100020002000002020200000000000003
:10B2400000000000000000000000000000000000FE
:10B2500000000000000000000000000000000000EE
:10B2600000000000000000000000000000000000DE
:10B2700000000000000000000000000000000000CE
:10B2800000000000000000000000000000000000BE
:10B2900000000000000000000000020002000200A8
:10B2A0000200020002000200000001000100010093
:10B2B0000100010001000001010100000000000088
:10B2C000000000000000000000000000000000007E
:10B2D0000000000000000000000002000200020068
:10B2E0000200020002000200000002000200010051
:10B2F0000100010001000001010100000000000048
:10B30000000000000000000000000000000000003D
:10B310000000000000000000000002000200020027
:10B320000000020002000200000001000200000014
:10B330000100010000000001010100000000000008
:10B3400000000000000000000000000000000000FD
:10B3500000000000000000000000020002000200E7
:10B3600002000200020002000000010001000100D2
:10B3700001000100010000010101000000000000C7
:10B3800000000000000000000000000000000000BD
:10B3900000000000000000000000020002000200A7
:10B3A0000200020002000200000001000100010092
:10B3B0000100010001000001010100000000000087
:10B3C000000000000000000000000000000000007D
:10B3D0000000000000000000000002000200020067
:10B3E0000200020002000200000002000200010050
:10B3F0000100010001000001010100000000000047
:10B40000000000000000000000000000000000003C
:10B41000000000000000000000000000000000002C
:10B42000000000000000000000000000000000001C
:10B43000000000000000000000000000000000000C
:10B4400000000000000000000000000000000000FC
:10B4500000000000000000000000000001000100EA
:10B4600001000000000000000000010001000100D8
:10B4700001000100010000000000000000000000C9
:10B4800000000000000000000000000000000000BC
:10B4900000000000000000000000020002000200A6
:10B4A000020002000200020000000200020002008E
:10B4B0000200020002000000000000000000000086
:10B4C000000000000000000000000000000000007C
:10B4D0000000000000000000000002000200020066
:10B4E000020002000200020000000200020002004E
:10B4F0000200020002000002020200000000000040
:10B50000000000000000000000000000000000003B
:10B510000000000000000000000002000200020025
:10B520000200020002000200000002000100000010
:10B530000100010001000001010100000000000005
:10B5400000000000000000000000000000000000FB
:10B5500000000000000000000000020002000200E5
:10B5600002000200020002000000020002000200CD
:10B5700002000200020000020202000000000000BF
:10B5800000000000000000000000000000000000BB
:10B5900000000000000000000000020002000200A5
:10B5A000020002000200020000000200020002008D
:10B5B000020002000200000202020000000000007F
:10B5C000000000000000000000000000000000007B
:10B5D0000000000000000000000002000200020065
:10B5E000020002000200020000000200020002004D
:10B5F0000200020001000002020200000000000040
:10B60000000000000000000000000000000000003A
:10B610000000000000000000000002000200020024
:10B62000020002000200020000000200020002000C
:10B6300002000200020000020202000000000000FE
:10B6400000000000000000000000000000000000FA
:10B6500000000000000000000000000000000000EA
:10B6600000000000000000000000000000000000DA
:10B6700000000000000000000000000000000000CA
:10B6800000000000000000000000000000000000BA
:10B6900000000000000000000000020002000200A4
:10B6A000020002000200020000000200020001008D
:10B6B0000100010001000001010100000000000084
:10B6C000000000000000000000000000000000007A
:10B6D0000000000000000000000002000200020064
:10B6E000020002000200020000000200020001004D
:10B6F0000100010001000001010100000000000044
:10B700000000000000000000000000000000000039
:10B710000000000000000000000002000200020023
:10B72000000002000200020000000100020002000E
:10B730000100010000000001010100000000000004
:10B7400000000000000000000000000000000000F9
:10B7500000000000000000000000020002000200E3
:10B7600002000200020002000000010001000100CE
:10B7700001000100010000010101000000000000C3
:10B7800000000000000000000000000000000000B9
:10B7900000000000000000000000020002000200A3
:10B7A000020002000200020000000100010001008E
:10B7B0000100010001000001010100000000000083
:10B7C0000000000000000000000000000000000079
:10B7D0000000000000000000000002000200020063
:10B7E000020002000200020000000200020002004B
:10B7F0000200010001000001010100000000000042
:10B800000000000000000000000000000000000038
:10B810000000000000000000000000000000000028
:10B820000000000000000000000000000000000018
:10B830000000000000000000000000000000000008
:10B8400000000000000000000000000000000000F8
:10B8500000000000000000000000000000000000E8
:10B8600001000000000000000000010001000100D4
:10B8700001000100010000000000000000000000C5
:10B8800000000000000000000000000000000000B8
:10B8900000000000000000000000020002000200A2
:10B8A000020002000200020000000200020002008A
:10B8B0000200020002000000000000000000000082
:10B8C0000000000000000000000000000000000078
:10B8D0000000000000000000000002000200020062
:10B8E000020002000200020000000200020002004A
:10B8F000020002000200000202020000000000003C
:10B900000000000000000000000000000000000037
:10B910000000000000000000000002000200020021
:10B92000020002000200020000000200010000000C
:10B930000100010002000001010100000000000000
:10B9400000000000000000000000000000000000F7
:10B9500000000000000000000000020002000200E1
:10B9600002000200020002000000020002000200C9
:10B9700002000200020000020202000000000000BB
:10B9800000000000000000000000000000000000B7
:10B9900000000000000000000000020002000200A1
:10B9A0000200020002000200000002000200020089
:10B9B000020002000200000202020000000000007B
:10B9C0000000000000000000000000000000000077
:10B9D0000000000000000000000002000200020061
:10B9E0000200020002000200000002000200020049
:10B9F0000100010002000001010100000000000040
:10BA00000000000000000000000000000000000036
:10BA10000000000000000000000002000200020020
:10BA20000200020002000200000002000200020008
:10BA300002000200020000020202000000000000FA
:10BA400000000000000000000000000000000000F6
:10BA500000000000000000000000000000000000E6
:10BA600000000000000000000000000000000000D6
:10BA700000000000000000000000000000000000C6
:10BA800000000000000000000000000000000000B6
:10BA900000000000000000000000020002000200A0
:10BAA0000200020002000200000002000200010089
:10BAB0000100010001000001010100000000000080
:10BAC0000000000000000000000000000000000076
:10BAD0000000000000000000000002000200020060
:10BAE0000200020002000200000002000200020048
:10BAF0000100010001000001010100000000000040
:10BB00000000000000000000000000000000000035
:10BB1000000000000000000000000200020002001F
:10BB20000200020002000200000002000200010008
:10BB300001000100020000010101000000000000FE
:10BB400000000000000000000000000000000000F5
:10BB500000000000000000000000020002000200DF
:10BB600002000200020002000000010001000100CA
:10BB700001000100010000010101000000000000BF
:10BB800000000000000000000000000000000000B5
:10BB9000000000000000000000000200020002009F
:10BBA000020002000200020000000100010001008A
:10BBB000010001000100000101010000000000007F
:10BBC0000000000000000000000000000000000075
:10BBD000000000000000000000000200020002005F
:10BBE0000200020002000200000002000200020047
:10BBF000020002000200000101010000000000003C
:10BC00000000000000000000000000000000000034
:10BC10000000000000000000000000000000000024
:10BC20000000000000000000000000000000000014
:10BC30000000000000000000000000000000000004
:10BC400000000000000000000000000000000000F4
:10BC500000000000000000000000000000000000E4
:10BC600001000000000000000000010001000100D0
:10BC700001000100010000000000000000000000C1
:10BC800000000000000000000000000000000000B4
:10BC9000000000000000000000000200020002009E
:10BCA0000200020002000200000001000200010088
:10BCB0000100010001000000000000000000000081
:10BCC0000000000000000000000000000000000074
:10BCD000000000000000000000000200020002005E
:10BCE0000200020002000200000002000200020046
:10BCF0000200020002000002020200000000000038
:10BD00000000000000000000000000000000000033
:10BD1000000000000000000000000200020002001D
:10BD20000200020002000200000002000100000008
:10BD300001000200020000010101000000000000FB
:10BD400000000000000000000000000000000000F3
:10BD500000000000000000000000020002000200DD
:10BD600002000200020002000000020002000200C5
:10BD700002000200020000020202000000000000B7
:10BD800000000000000000000000000000000000B3
:10BD9000000000000000000000000200020002009D
:10BDA0000200020002000200000002000200020085
:10BDB0000200020002000002020200000000000077
:10BDC0000000000000000000000000000000000073
:10BDD000000000000000000000000200020002005D
:10BDE0000200020002000200000001000100020047
:10BDF000020002000100000101010000000000003B
:10BE00000000000000000000000000000000000032
:10BE1000000000000000000000000200020002001C
:10BE20000200020002000200000002000200020004
:10BE300002000200020000020202000000000000F6
:10BE400000000000000000000000000000000000F2
:10BE500000000000000000000000000000000000E2
:10BE600000000000000000000000000000000000D2
:10BE700000000000000000000000000000000000C2
:10BE800000000000000000000000000000000000B2
:10BE9000000000000000000000000200020002009C
:10BEA0000200020002000200000002000200020084
:10BEB000010001000100000101010000000000007C
:10BEC0000000000000000000000000000000000072
:10BED000000000000000000000000200020002005C
:10BEE0000200020002000200000002000200020044
:10BEF000010002000100000101010000000000003B
:10BF00000000000000000000000000000000000031
:10BF1000000000000000000000000200020002001B
:10BF20000200020002000200000002000200010004
:10BF300001000100020000010101000000000000FA
:10BF400000000000000000000000000000000000F1
:10BF500000000000000000000000020002000200DB
:10BF600002000200020002000000010002000100C5
:10BF700001000100010000010101000000000000BB
:10BF800000000000000000000000000000000000B1
:10BF9000000000000000000000000200020002009B
:10BFA0000200020002000200000002000200010084
:10BFB000010001000100000101010000000000007B
:10BFC0000000000000000000000000000000000071
:10BFD000000000000000000000000200020002005B
:10BFE0000200020002000200000002000200020043
:10BFF0000200020002000002020200000000000035
:10C000000000000000000000000000000000000030
:10C010000000000000000000000000000000000020
:10C020000000000000000000000000000000000010
:10C030000000000000000000000000000000000000
:10C0400000000000000000000000000000000000F0
:10C0500000000000000000000000000000000000E0
:10C0600001000000000000000000010001000100CC
:10C0700001000100010000000000000000000000BD
:10C0800000000000000000000000000000000000B0
:10C09000000000000000000000000200020002009A
:10C0A0000200020002000200000001000200010084
:10C0B000010001000100000000000000000000007D
:10C0C0000000000000000000000000000000000070
:10C0D000000000000000000000000200020002005A
:10C0E0000200020002000200000002000200020042
:10C0F0000200010002000002020200000000000035
:10C10000000000000000000000000000000000002F
:10C110000000000000000000000002000200020019
:10C120000200020002000200000001000100000005
:10C1300001000200020000020202000000000000F4
:10C1400000000000000000000000000000000000EF
:10C1500000000000000000000000020002000200D9
:10C1600002000200020002000000020002000200C1
:10C1700002000200020000020202000000000000B3
:10C1800000000000000000000000000000000000AF
:10C190000000000000000000000002000200020099
:10C1A0000200020002000200000002000200020081
:10C1B0000200020002000002020200000000000073
:10C1C000000000000000000000000000000000006F
:10C1D0000000000000000000000002000200020059
:10C1E0000200020002000200000002000200010042
:10C1F0000100010001000001010100000000000039
:10C20000000000000000000000000000000000002E
:10C210000000000000000000000002000200020018
:10C220000200020002000200000002000200020000
:10C2300002000200010000020202000000000000F3
:10C2400000000000000000000000000000000000EE
:10C2500000000000000000000000000000000000DE
:10C2600000000000000000000000000000000000CE
:10C2700000000000000000000000000000000000BE
:10C2800000000000000000000000000000000000AE
:10C290000000000000000000000002000200020098
:10C2A0000200020002000200000002000200020080
:10C2B0000100020001000001010100000000000077
:10C2C000000000000000000000000000000000006E
:10C2D0000000000000000000000002000200020058
:10C2E0000200020002000200000002000200020040
:10C2F0000100020001000002020200000000000034
:10C30000000000000000000000000000000000002D
:10C310000000000000000000000002000200020017
:10C320000200020002000200000002000200010000
:10C3300002000200010000020202000000000000F2
:10C3400000000000000000000000000000000000ED
:10C3500000000000000000000000020002000200D7
:10C3600002000200020002000000010002000200C0
:10C3700001000100010000010101000000000000B7
:10C3800000000000000000000000000000000000AD
:10C390000000000000000000000002000200020097
:10C3A000020002000200020000000200020002007F
:10C3B0000100010001000001010100000000000077
:10C3C000000000000000000000000000000000006D
:10C3D0000000000000000000000002000200020057
:10C3E000020002000200020000000200020002003F
:10C3F0000200020002000002020200000000000031
:10C40000000000000000000000000000000000002C
:10C41000000000000000000000000000000000001C
:10C42000000000000000000000000000000000000C
:10C4300000000000000000000000000000000000FC
:10C4400000000000000000000000000000000000EC
:10C4500000000000000000000000010000000000DB
:10C4600000000000000000000000010001000100C9
:10C4700001000100010000000000000000000000B9
:10C4800000000000000000000000000000000000AC
:10C490000000000000000000000002000200020096
:10C4A0000200020002000200000002000100010080
:10C4B0000100010001000000000000000000000079
:10C4C000000000000000000000000000000000006C
:10C4D0000000000000000000000002000200020056
:10C4E000020002000200020000000200020002003E
:10C4F0000200010001000001010100000000000035
:10C50000000000000000000000000000000000002B
:10C510000000000000000000000002000200020015
:10C520000200020002000200000001000200000000
:10C5300002000200020000020202000000000000EF
:10C5400000000000000000000000000000000000EB
:10C5500000000000000000000000020002000200D5
:10C5600002000200020002000000020002000200BD
:10C5700002000200020000020202000000000000AF
:10C5800000000000000000000000000000000000AB
:10C590000000000000000000000002000200020095
:10C5A000020002000200020000000200020001007E
:10C5B0000100010001000001010100000000000075
:10C5C000000000000000000000000000000000006B
:10C5D0000000000000000000000002000200020055
:10C5E0000200020002000200000001000100010040
:10C5F0000100010001000001010100000000000035
:10C60000000000000000000000000000000000002A
:10C610000000000000000000000002000200020014
:10C6200001000200020002000000020002000100FE
:10C6300002000100010000010101000000000000F3
:10C6400000000000000000000000000000000000EA
:10C6500000000000000000000000000000000000DA
:10C6600000000000000000000000000000000000CA
:10C6700000000000000000000000000000000000BA
:10C6800000000000000000000000000000000000AA
:10C690000000000000000000000002000200020094
:10C6A000020002000200020000000200020002007C
:10C6B0000100020001000002020200000000000070
:10C6C000000000000000000000000000000000006A
:10C6D0000000000000000000000002000200020054
:10C6E000020002000200020000000200020002003C
:10C6F000020002000100000202020000000000002F
:10C700000000000000000000000000000000000029
:10C710000000000000000000000002000200020013
:10C7200002000200020002000000020002000100FC
:10C7300002000200010000020202000000000000EE
:10C7400000000000000000000000000000000000E9
:10C7500000000000000000000000020002000200D3
:10C7600002000200020002000000020002000200BB
:10C7700001000200010000010101000000000000B2
:10C7800000000000000000000000000000000000A9
:10C790000000000000000000000002000200020093
:10C7A000020002000200020000000200020002007B
:10C7B0000200020002000001010100000000000070
:10C7C0000000000000000000000000000000000069
:10C7D0000000000000000000000002000200020053
:10C7E000020002000200020000000200020002003B
:10C7F000020002000200000202020000000000002D
:10C800000000000000000000000000000000000028
:10C810000000000000000000000000000000000018
:10C820000000000000000000000000000000000008
:10C8300000000000000000000000000000000000F8
:10C8400000000000000000000000000000000000E8
:10C8500000000000000000000000020000000000D6
:10C8600000000000000000000000010001000100C5
:10C8700001000100010000000000000000000000B5
:10C8800000000000000000000000000000000000A8
:10C890000000000000000000000002000200020092
:10C8A000020002000200020000000200010001007C
:10C8B0000100010001000000000000000000000075
:10C8C0000000000000000000000000000000000068
:10C8D0000000000000000000000002000200020052
:10C8E000020002000200020000000100010001003D
:10C8F0000100010001000001010100000000000032
:10C900000000000000000000000000000000000027
:10C910000000000000000000000002000200020011
:10C9200002000200020002000000010002000000FC
:10C9300002000200020000020202000000000000EB
:10C9400000000000000000000000000000000000E7
:10C9500000000000000000000000020002000200D1
:10C9600002000200020002000000020002000200B9
:10C9700001000100010000010101000000000000B1
:10C9800000000000000000000000000000000000A7
:10C990000000000000000000000002000200010092
:10C9A000020002000200020000000100010001007C
:10C9B0000100010001000001010100000000000071
:10C9C0000000000000000000000000000000000067
:10C9D0000000000000000000000002000200020051
:10C9E000020002000200020000000100010001003C
:10C9F0000100010001000001010100000000000031
:10CA00000000000000000000000000000000000026
:10CA10000000000000000000000002000200020010
:10CA200001000200020002000000010001000100FC
:10CA300001000100010000010101000000000000F0
:10CA400000000000000000000000000000000000E6
:10CA500000000000000000000000000000000000D6
:10CA600000000000000000000000000000000000C6
:10CA700000000000000000000000000000000000B6
:10CA800000000000000000000000000000000000A6
:10CA90000000000000000000000002000200020090
:10CAA0000200020002000200000002000200020078
:10CAB000020002000200000202020000000000006A
:10CAC0000000000000000000000000000000000066
:10CAD0000000000000000000000002000200020050
:10CAE0000200020002000200000002000200020038
:10CAF000020002000200000202020000000000002A
:10CB00000000000000000000000000000000000025
:10CB1000000000000000000000000200020002000F
:10CB200002000200020002000000020002000200F7
:10CB300002000200010000020202000000000000EA
:10CB400000000000000000000000000000000000E5
:10CB500000000000000000000000020002000200CF
:10CB600002000200020002000000020002000200B7
:10CB700002000200020000020202000000000000A9
:10CB800000000000000000000000000000000000A5
:10CB9000000000000000000000000200020002008F
:10CBA0000200020002000200000002000200020077
:10CBB0000200020002000002020200000000000069
:10CBC0000000000000000000000000000000000065
:10CBD000000000000000000000000200020002004F
:10CBE0000200020002000200000002000200020037
:10CBF0000200020002000002020200000000000029
:10CC00000000000000000000000000000000000024
:10CC10000000000000000000000000000000000014
:10CC20000000000000000000000000000000000004
:10CC300000000000000000000000000000000000F4
:10CC400000000000000000000000000000000000E4
:10CC500000000000000000000000020000000000D2
:10CC600000000000000000000000010001000100C1
:10CC700001000100010000000000000000000000B1
:10CC800000000000000000000000000000000000A4
:10CC9000000000000000000000000200020002008E
:10CCA000010001000100010000000100010001007D
:10CCB0000100010001000000000000000000000071
:10CCC0000000000000000000000000000000000064
:10CCD000000000000000000000000200020002004E
:10CCE0000200020002000200000001000100010039
:10CCF000010001000100000101010000000000002E
:10CD00000000000000000000000000000000000023
:10CD1000000000000000000000000200020002000D
:10CD200002000200020002000000020002000000F7
:10CD300002000200020000020202000000000000E7
:10CD400000000000000000000000000000000000E3
:10CD500000000000000000000000020002000200CD
:10CD600002000200020002000000010001000100B8
:10CD700001000100010000010101000000000000AD
:10CD800000000000000000000000000000000000A3
:10CD9000000000000000000000000200020002008D
:10CDA0000200020002000200000001000100010078
:10CDB000010001000100000101010000000000006D
:10CDC0000000000000000000000000000000000063
:10CDD000000000000000000000000200020002004D
:10CDE0000200020002000200000001000100010038
:10CDF000010001000100000101010000000000002D
:10CE00000000000000000000000000000000000022
:10CE1000000000000000000000000200020002000C
:10CE200002000200020002000000010001000100F7
:10CE300001000100010000010101000000000000EC
:10CE400000000000000000000000000000000000E2
:10CE500000000000000000000000000000000000D2
:10CE600000000000000000000000000000000000C2
:10CE700000000000000000000000000000000000B2
:10CE800000000000000000000000000000000000A2
:10CE9000000000000000000000000200020002008C
:10CEA0000200020002000200000002000200020074
:10CEB0000200020002000002020200000000000066
:10CEC0000000000000000000000000000000000062
:10CED000000000000000000000000200020002004C
:10CEE0000200020002000200000002000200020034
:10CEF0000200020002000002020200000000000026
:10CF00000000000000000000000000000000000021
:10CF1000000000000000000000000200020002000B
:10CF200002000200020002000000020002000200F3
:10CF300002000200010000020202000000000000E6
:10CF400000000000000000000000000000000000E1
:10CF500000000000000000000000020002000200CB
:10CF600002000200020002000000020002000200B3
:10CF700002000200020000020202000000000000A5
:10CF800000000000000000000000000000000000A1
:10CF9000000000000000000000000200020002008B
:10CFA0000200020002000200000002000200020073
:10CFB0000200020002000002020200000000000065
:10CFC0000000000000000000000000000000000061
:10CFD000000000000000000000000200020002004B
:10CFE0000200020002000200000002000200020033
:10CFF0000200020002000002020200000000000025
:10D000000000000000000000000000000000000020
:10D010000000000000000000000000000000000010
:10D020000000000000000000000000000000000000
:10D0300000000000000000000000000000000000F0
:10D0400000000000000000000000000000000000E0
:10D0500000000000000000000000020002000200CA
:10D0600000000000000000000000010001000000BE
:10D0700001000100010000000000000000000000AD
:10D0800000000000000000000000000000000000A0
:10D09000000000000000000000000200010001008C
:10D0A0000100010001000100000001000100010079
:10D0B000010001000100000101010000000000006A
:10D0C0000000000000000000000000000000000060
:10D0D000000000000000000000000200020002004A
:10D0E0000200020002000200000001000100010035
:10D0F000010001000100000101010000000000002A
:10D10000000000000000000000000000000000001F
:10D110000000000000000000000002000200020009
:10D1200002000200020002000000020002000100F2
:10D1300002000200020000020202000000000000E3
:10D1400000000000000000000000000000000000DF
:10D1500000000000000000000000020002000200C9
:10D1600002000200020002000000010001000100B4
:10D1700001000100010000010101000000000000A9
:10D18000000000000000000000000000000000009F
:10D19000000000000000000000000200020000008B
:10D1A0000200020002000100000001000100010075
:10D1B0000100010001000001010100000000000069
:10D1C000000000000000000000000000000000005F
:10D1D000000000000000000000000200010001004B
:10D1E0000100010001000100000001000100010038
:10D1F0000100010001000001010100000000000029
:10D20000000000000000000000000000000000001E
:10D210000000000000000000000002000100020009
:10D2200002000200020002000000010001000100F3
:10D2300001000100010000010101000000000000E8
:10D2400000000000000000000000000000000000DE
:10D2500000000000000000000000000000000000CE
:10D2600000000000000000000000000000000000BE
:10D2700000000000000000000000000000000000AE
:10D28000000000000000000000000000000000009E
:10D290000000000000000000000002000200020088
:10D2A0000200020002000200000002000200020070
:10D2B0000200020002000002020200000000000062
:10D2C000000000000000000000000000000000005E
:10D2D0000000000000000000000002000200020048
:10D2E0000200020002000200000002000200020030
:10D2F0000200020002000002020200000000000022
:10D30000000000000000000000000000000000001D
:10D310000000000000000000000002000200020007
:10D3200002000200020002000000020002000200EF
:10D3300002000200010000020202000000000000E2
:10D3400000000000000000000000000000000000DD
:10D3500000000000000000000000020002000200C7
:10D3600002000200020002000000020002000200AF
:10D3700002000200020000020202000000000000A1
:10D38000000000000000000000000000000000009D
:10D390000000000000000000000002000200020087
:10D3A000020002000200020000000200020002006F
:10D3B0000200020002000002020200000000000061
:10D3C000000000000000000000000000000000005D
:10D3D0000000000000000000000002000200020047
:10D3E000020002000200020000000200020002002F
:10D3F0000200020002000002020200000000000021
:10D40000000000000000000000000000000000001C
:10D41000000000000000000000000000000000000C
:10D4200000000000000000000000000000000000FC
:10D4300000000000000000000000000000000000EC
:10D4400000000000000000000000000000000000DC
:10D4500000000000000000010101020002000200C3
:10D4600000000000000000000000000000000000BC
:10D4700001000100000000000000000000000000AA
:10D48000000000000000000000000000000000009C
:10D490000000000000000000000001000100010089
:10D4A0000100010001000100000001000100010075
:10D4B0000100010001000001010100000000000066
:10D4C000000000000000000000000000000000005C
:10D4D0000000000000000000000002000100010048
:10D4E0000100010001000100000001000100010035
:10D4F0000100010001000001010100000000000026
:10D50000000000000000000000000000000000001B
:10D510000000000000000000000002000200020005
:10D5200002000100020001000000020002000200EF
:10D5300002000100010000020202000000000000E1
:10D5400000000000000000000000000000000000DB
:10D5500000000000000000000000020002000200C5
:10D5600001000100010001000000010001000100B4
:10D5700001000100010000010101000000000000A5
:10D58000000000000000000000000000000000009B
:10D590000000000000000000000002000100000088
:10D5A0000100010001000100000001000100010074
:10D5B0000100010001000001010100000000000065
:10D5C000000000000000000000000000000000005B
:10D5D0000000000000000000000002000100010047
:10D5E0000100010001000100000001000100010034
:10D5F0000100010001000001010100000000000025
:10D60000000000000000000000000000000000001A
:10D610000000000000000000000002000200010005
:10D6200000000100010001000000010001000100F4
:10D6300001000100010000010101000000000000E4
:10D6400000000000000000000000000000000000DA
:10D6500000000000000000000000000000000000CA
:10D6600000000000000000000000000000000000BA
:10D6700000000000000000000000000000000000AA
:10D68000000000000000000000000000000000009A
:10D690000000000000000000000002000200020084
:10D6A000020002000200020000000200020002006C
:10D6B000020002000200000202020000000000005E
:10D6C000000000000000000000000000000000005A
:10D6D0000000000000000000000002000200020044
:10D6E000020002000200020000000200020002002C
:10D6F000020002000200000202020000000000001E
:10D700000000000000000000000000000000000019
:10D710000000000000000000000002000200020003
:10D7200002000200020002000000020002000200EB
:10D7300002000200020000020202000000000000DD
:10D7400000000000000000000000000000000000D9
:10D7500000000000000000000000020002000200C3
:10D7600002000200020002000000020002000200AB
:10D77000020002000200000202020000000000009D
:10D780000000000000000000000000000000000099
:10D790000000000000000000000002000200020083
:10D7A000020002000200020000000200020002006B
:10D7B000020002000200000202020000000000005D
:10D7C0000000000000000000000000000000000059
:10D7D0000000000000000000000002000200020043
:10D7E000020002000200020000000200020002002B
:10D7F000020002000200000202020000000000001D
:10D800000000000000000000000000000000000018
:10D810000000000000000000000000000000000008
:10D8200000000000000000000000000000000000F8
:10D8300000000000000000000000000000000000E8
:10D8400000000000000000000000000000000000D8
:10D8500000000000000000010101020002000200BF
:10D8600002000200020002000000000000000000B0
:10D8700001000100000000000000000000000000A6
:10D880000000000000000000000000000000000098
:10D890000000000000000000000001000200020083
:10D8A000020002000200020000000100010001006D
:10D8B0000100010001000001010100000000000062
:10D8C0000000000000000000000000000000000058
:10D8D0000000000000000000000002000100010044
:10D8E0000100010001000100000001000100010031
:10D8F0000100010001000001010100000000000022
:10D900000000000000000000000000000000000017
:10D910000000000000000000000001000100010004
:10D9200001000100010001000000010001000100F0
:10D9300001000100010000010101000000000000E1
:10D9400000000000000000000000000000000000D7
:10D9500000000000000000000000020002000100C2
:10D9600001000100010001000000010001000100B0
:10D9700001000100010000010101000000000000A1
:10D980000000000000000000000000000000000097
:10D990000000000000000000000002000100010083
:10D9A0000100010001000100000001000100010070
:10D9B0000100010001000001010100000000000061
:10D9C0000000000000000000000000000000000057
:10D9D0000000000000000000000001000100010044
:10D9E0000100010001000100000001000100010030
:10D9F0000100010001000001010100000000000021
:10DA00000000000000000000000000000000000016
:10DA10000000000000000000000002000100010002
:10DA200001000100010001000000010001000100EF
:10DA300001000100010000010101000000000000E0
:10DA400000000000000000000000000000000000D6
:10DA500000000000000000000000000000000000C6
:10DA600000000000000000000000000000000000B6
:10DA700000000000000000000000000000000000A6
:10DA80000000000000000000000000000000000096
:10DA90000000000000000000000002000200020080
:10DAA0000200020002000200000002000200020068
:10DAB000020002000200000202020000000000005A
:10DAC0000000000000000000000000000000000056
:10DAD0000000000000000000000002000200020040
:10DAE0000200020002000200000002000200020028
:10DAF000020002000200000202020000000000001A
:10DB00000000000000000000000000000000000015
:10DB10000000000000000000000002000100020000
:10DB200002000100010002000000020002000200E9
:10DB300002000200020000020202000000000000D9
:10DB400000000000000000000000000000000000D5
:10DB500000000000000000000000020002000200BF
:10DB600002000200020002000000020002000200A7
:10DB70000200020002000002020200000000000099
:10DB80000000000000000000000000000000000095
:10DB9000000000000000000000000200020002007F
:10DBA0000200020002000200000002000200020067
:10DBB0000200020002000002020200000000000059
:10DBC0000000000000000000000000000000000055
:10DBD000000000000000000000000200020002003F
:10DBE0000200020002000200000002000200020027
:10DBF0000200020002000002020200000000000019
:10DC00000000000000000000000000000000000014
:10DC10000000000000000000000000000000000004
:10DC200000000000000000000000000000000000F4
:10DC300000000000000000000000000000000000E4
:10DC400000000000000000000000000000000000D4
:10DC500000000000000000010101020002000200BB
:10DC600002000200020002000000000000000200AA
:10DC7000020001000200000000000000000000009F
:10DC80000000000000000000000000000000000094
:10DC9000000000000000000000000200020002007E
:10DCA0000200020002000200000001000100010069
:10DCB000010001000100000101010000000000005E
:10DCC0000000000000000000000000000000000054
:10DCD0000000000000000000000001000100010041
:10DCE000010001000100010000000100010001002D
:10DCF000010001000100000101010000000000001E
:10DD00000000000000000000000000000000000013
:10DD100000000000000000000000020001000100FF
:10DD200001000100010001000000010001000100EC
:10DD300001000100010000010101000000000000DD
:10DD400000000000000000000000000000000000D3
:10DD500000000000000000000000020001000100BF
:10DD600001000100010001000000010001000100AC
:10DD7000010001000100000101010000000000009D
:10DD80000000000000000000000000000000000093
:10DD90000000000000000000000001000100010080
:10DDA000010001000100010000000100010001006C
:10DDB000010001000100000101010000000000005D
:10DDC0000000000000000000000000000000000053
:10DDD0000000000000000000000001000100010040
:10DDE000010001000100010000000100010001002C
:10DDF000010001000100000101010000000000001D
:10DE00000000000000000000000000000000000012
:10DE100000000000000000000000010001000100FF
:10DE200001000100010001000000010001000100EB
:10DE300001000100010000010101000000000000DC
:10DE400000000000000000000000000000000000D2
:10DE500000000000000000000000000000000000C2
:10DE600000000000000000000000000000000000B2
:10DE700000000000000000000000000000000000A2
:10DE80000000000000000000000000000000000092
:10DE9000000000000000000000000200020002007C
:10DEA0000200020002000200000002000200020064
:10DEB0000200020002000002020200000000000056
:10DEC0000000000000000000000000000000000052
:10DED000000000000000000000000200020002003C
:10DEE0000200020002000200000002000200020024
:10DEF0000200020002000002020200000000000016
:10DF00000000000000000000000000000000000011
:10DF100000000000000000000000020001000200FC
:10DF200002000100010002000000020002000200E5
:10DF300002000200020000020202000000000000D5
:10DF400000000000000000000000000000000000D1
:10DF500000000000000000000000020002000200BB
:10DF600002000200020002000000020002000200A3
:10DF70000200020002000002020200000000000095
:10DF80000000000000000000000000000000000091
:10DF9000000000000000000000000200020002007B
:10DFA0000200020002000200000002000200020063
:10DFB0000200020002000002020200000000000055
:10DFC0000000000000000000000000000000000051
:10DFD000000000000000000000000200020002003B
:10DFE0000200020002000200000002000200020023
:10DFF0000200020002000002020200000000000015
:10E000000000000000000000000000000000000010
:10E010000000000000000000000000000000000000
:10E0200000000000000000000000000000000000F0
:10E0300000000000000000000000000000000000E0
:10E0400000000000000000000000000000000000D0
:10E0500000000000000000010101020002000200B7
:10E0600002000200020002000000020002000200A2
:10E07000020001000200000000000000000000009B
:10E080000000000000000000000000000000000090
:10E09000000000000000000000000200010001007C
:10E0A0000200020002000200000001000100010065
:10E0B000010001000100000101010000000000005A
:10E0C0000000000000000000000000000000000050
:10E0D000000000000000000000000100010001003D
:10E0E0000100010001000100000001000100010029
:10E0F000010001000100000101010000000000001A
:10E10000000000000000000000000000000000000F
:10E1100000000000000000000000010001000100FC
:10E1200001000100010001000000010001000100E8
:10E1300001000100010000010101000000000000D9
:10E1400000000000000000000000000000000000CF
:10E1500000000000000000000000010001000100BC
:10E1600001000100010001000000010001000100A8
:10E170000100010001000001010100000000000099
:10E18000000000000000000000000000000000008F
:10E19000000000000000000000000100010001007C
:10E1A0000100010001000100000001000100010068
:10E1B0000100010001000001010100000000000059
:10E1C000000000000000000000000000000000004F
:10E1D000000000000000000000000100010001003C
:10E1E0000100010001000100000001000100010028
:10E1F0000100010001000001010100000000000019
:10E20000000000000000000000000000000000000E
:10E2100000000000000000000000010001000100FB
:10E2200001000100010001000000010001000100E7
:10E2300001000100010000010101000000000000D8
:10E2400000000000000000000000000000000000CE
:10E2500000000000000000000000000000000000BE
:10E2600000000000000000000000000000000000AE
:10E27000000000000000000000000000000000009E
:10E28000000000000000000000000000000000008E
:10E290000000000000000000000002000200020078
:10E2A0000200020002000200000002000200020060
:10E2B0000200020002000002020200000000000052
:10E2C000000000000000000000000000000000004E
:10E2D0000000000000000000000002000200020038
:10E2E0000200020002000200000002000200020020
:10E2F0000200020002000002020200000000000012
:10E30000000000000000000000000000000000000D
:10E3100000000000000000000000020001000200F8
:10E3200002000100010002000000020002000200E1
:10E3300002000200020000020202000000000000D1
:10E3400000000000000000000000000000000000CD
:10E3500000000000000000000000020002000200B7
:10E36000020002000200020000000200020002009F
:10E370000200020002000002020200000000000091
:10E38000000000000000000000000000000000008D
:10E390000000000000000000000002000200020077
:10E3A000020002000200020000000200020002005F
:10E3B0000200020002000002020200000000000051
:10E3C000000000000000000000000000000000004D
:10E3D0000000000000000000000002000200020037
:10E3E0000200020002000200000001000100010022
:10E3F0000100010001000001010100000000000017
:10E40000000000000000000000000000000000000C
:10E4100000000000000000000000000000000000FC
:10E4200000000000000000000000000000000000EC
:10E4300000000000000000000000000000000000DC
:10E4400000000000000000000000000000000000CC
:10E4500000000000000000010101020002000200B3
:10E46000020002000200020000000200020002009E
:10E470000200020002000000000000000000000096
:10E48000000000000000000000000000000000008C
:10E490000000000000000000000001000100010079
:10E4A0000100010001000100000001000100010065
:10E4B0000100010001000001010100000000000056
:10E4C000000000000000000000000000000000004C
:10E4D0000000000000000000000001000100010039
:10E4E0000100010001000100000001000100010025
:10E4F0000100010001000001010100000000000016
:10E50000000000000000000000000000000000000B
:10E5100000000000000000000000010001000100F8
:10E5200001000100010001000000010001000100E4
:10E5300001000100010000010101000000000000D5
:10E5400000000000000000000000000000000000CB
:10E5500000000000000000000000010001000100B8
:10E5600001000100010001000000010001000100A4
:10E570000100010001000001010100000000000095
:10E58000000000000000000000000000000000008B
:10E590000000000000000000000001000100010078
:10E5A0000100010001000100000001000100010064
:10E5B0000100010001000001010100000000000055
:10E5C000000000000000000000000000000000004B
:10E5D0000000000000000000000001000100010038
:10E5E0000100010001000100000001000100010024
:10E5F0000100010001000001010100000000000015
:10E60000000000000000000000000000000000000A
:10E6100000000000000000000000010001000100F7
:10E6200001000100010001000000010001000100E3
:10E6300001000100010000010101000000000000D4
:10E6400000000000000000000000000000000000CA
:10E6500000000000000000000000000000000000BA
:10E6600000000000000000000000000000000000AA
:10E67000000000000000000000000000000000009A
:10E68000000000000000000000000000000000008A
:10E690000000000000000000000002000200020074
:10E6A000020002000200020000000200020002005C
:10E6B000020002000200000202020000000000004E
:10E6C000000000000000000000000000000000004A
:10E6D0000000000000000000000002000200020034
:10E6E000020002000200020000000200020002001C
:10E6F000020002000200000202020000000000000E
:10E700000000000000000000000000000000000009
:10E7100000000000000000000000020002000200F3
:10E7200002000200020002000000020001000100DD
:10E7300001000100010000010101000000000000D3
:10E7400000000000000000000000000000000000C9
:10E7500000000000000000000000020002000200B3
:10E76000020002000200020000000200020002009B
:10E77000020002000200000202020000000000008D
:10E780000000000000000000000000000000000089
:10E790000000000000000000000002000200020073
:10E7A000020002000200020000000200020002005B
:10E7B000020002000200000202020000000000004D
:10E7C0000000000000000000000000000000000049
:10E7D0000000000000000000000002000200020033
:10E7E000020002000200020000000100010001001E
:10E7F0000100010001000001010100000000000013
:10E800000000000000000000000000000000000008
:10E8100000000000000000000000000000000000F8
:10E8200000000000000000000000000000000000E8
:10E8300000000000000000000000000000000000D8
:10E8400000000000000000000000000000000000C8
:10E8500000000000000000010101020002000200AF
:10E86000020002000200020000000200020002009A
:10E870000200020002000000000000000000000092
:10E880000000000000000000000000000000000088
:10E890000000000000000000000001000100010075
:10E8A0000100010001000100000001000100010061
:10E8B0000100010001000001010100000000000052
:10E8C0000000000000000000000000000000000048
:10E8D0000000000000000000000001000100010035
:10E8E0000100010001000100000001000100010021
:10E8F0000100010001000001010100000000000012
:10E900000000000000000000000000000000000007
:10E9100000000000000000000000010001000100F4
:10E9200001000100010001000000010001000100E0
:10E9300001000100010000010101000000000000D1
:10E9400000000000000000000000000000000000C7
:10E9500000000000000000000000010001000100B4
:10E9600001000100010001000000010001000100A0
:10E970000100010001000001010100000000000091
:10E980000000000000000000000000000000000087
:10E990000000000000000000000001000100010074
:10E9A0000100010001000100000001000100010060
:10E9B0000100010001000001010100000000000051
:10E9C0000000000000000000000000000000000047
:10E9D0000000000000000000000001000100010034
:10E9E0000100010001000100000001000100010020
:10E9F0000100010001000001010100000000000011
:10EA00000000000000000000000000000000000006
:10EA100000000000000000000000010001000100F3
:10EA200001000100010001000000010001000100DF
:10EA300001000100010000010101000000000000D0
:10EA400000000000000000000000000000000000C6
:10EA500000000000000000000000000000000000B6
:10EA600000000000000000000000000000000000A6
:10EA70000000000000000000000000000000000096
:10EA80000000000000000000000000000000000086
:10EA90000000000000000000000001000200020071
:10EAA0000200020002000200000002000200020058
:10EAB000020002000200000202020000000000004A
:10EAC0000000000000000000000000000000000046
:10EAD0000000000000000000000002000200020030
:10EAE000020002000200000000000100010001001D
:10EAF0000100010001000001010100000000000010
:10EB00000000000000000000000000000000000005
:10EB100000000000000000000000010002000200F0
:10EB200002000200020002000000020002000200D7
:10EB300002000200020000020202000000000000C9
:10EB400000000000000000000000000000000000C5
:10EB500000000000000000000000020002000200AF
:10EB60000200020002000200000002000200020097
:10EB70000200020002000002020200000000000089
:10EB80000000000000000000000000000000000085
:10EB90000000000000000000000002000100010071
:10EBA000010001000100020000000200020002005A
:10EBB0000200020002000002020200000000000049
:10EBC0000000000000000000000000000000000045
:10EBD000000000000000000000000200020002002F
:10EBE000020002000200010000000100010001001B
:10EBF000010001000100000101010000000000000F
:10EC00000000000000000000000000000000000004
:10EC100000000000000000000000000000000000F4
:10EC200000000000000000000000000000000000E4
:10EC300000000000000000000000000000000000D4
:10EC400000000000000000000000000000000000C4
:10EC500000000000000000010101020002000200AB
